:020000040800F2
:10000000A006002001010008152C00080D2C000896
:10001000112C0008C9070008352C0008000000005A
:100020000000000000000000000000001D2C00087F
:10003000CD07000800000000192C0008212C000842
:100040001B0100081B0100081B0100081B01000820
:100050001B0100081B0100081B0100081B01000810
:100060001B0100081B0100081B0100081B01000800
:100070001B0100081B0100081B0100081B010008F0
:100080001B0100081B0100081B0100081B010008E0
:100090001B0100081B0100081B0100081B010008D0
:1000A0001B0100081B0100081B0100081B010008C0
:1000B0001B010008292C00081B0100081B01000877
:1000C0001B0100081B0100081B0100081B010008A0
:1000D0001B0100081B0100081B0100081B01000890
:1000E0001B0100081B0100081B010008DFF80CD0F1
:1000F00000F0C2FA004800476D2E0008A00600205C
:100100000648804706480047FEE7FEE7FEE7FEE7B1
:10011000FEE7FEE7FEE7FEE7FEE7FEE7252C000828
:10012000ED000008F0B480EA0102D40F4200B2EB07
:10013000410F02D20246084611464A0042D0C30D82
:10014000DDB2C1F3C752AD1A202D35DAC1F3160165
:1001500041F4000204B15242C5F1200602FA06F150
:100160002A411044B3EBD05F23D0C4B1012DA0EBE2
:10017000C35009DCF0BC4FF0004202EAC352DBB2CC
:1001800000F5000000F0ECB9400000F1807000EBD9
:10019000C350A0F1807040EAD170490009E04908DD
:1001A00041EAC071A0EBC35000F50000400800EB2D
:1001B000C350F0BC00F0CBB96142012202EB410117
:1001C000001BF6E7F0BC704781F00041AAE780F021
:1001D0000040A7E780EA010210B502F000434000AA
:1001E00022D04A001FD0010E01EB1261C0F356006D
:1001F000C2F3560240F4000042F40002A0FB0220C9
:1002000000047F39140400D0401C50EA124001D48D
:100210004000491EC2B20C0604EBD010401C40083E
:10022000802A02D003E0002010BD20F00100002948
:1002300000DA0020184310BD2DE9FE4F804681EA08
:100240000300C00F0C46009021F0004123F0004550
:10025000B8EB0200A94105D24046214690461C4613
:100260000B46024623F00040104347D0270DC7F34A
:100270000A00C3F30A510290401A019040286BDA39
:10028000C3F3130040F4801B0098924620B1002372
:10029000D2EB030A63EB0B0B01985946C0F1400205
:1002A000504600F033F906460D4650465946019A2D
:1002B00000F03BF910EB08006141002487EA11527D
:1002C00084EAE7731A4340D0009A62B3019A012A84
:1002D0004FEA075215DC001B61EB02014FF00042B0
:1002E00002EA0752CDE90042001C41F58011324676
:1002F0002B4600F072F903B0BDE8F08F404621466E
:10030000F9E7001B61EB0201001C41F580130018A6
:100310005B412018A2F5001747EB030140EAD570B6
:10032000B6196D4111E06D084FEA360645EAC07511
:100330004FEA0752001B61EB0201001C41F58011DE
:1003400049084FEA30000019514132462B4603B0AC
:10035000BDE8F04F00F032B90098012240000023C0
:10036000D0EB020263EBE073009821464FEAE074A1
:10037000B8EB000061EB0401E9E783F000435BE7C1
:1003800081F0004158E72DE9FE4F81EA030404F0B3
:10039000004421F0004100944FF0000B23F0004393
:1003A00050EA01045ED052EA03045BD0C3F30A545E
:1003B000C1F30A552C44A4F2F3340194A0FB025477
:1003C000C1F3130141F48011C3F3130343F4801309
:1003D00001FB024400FB034E840A970A44EA81545D
:1003E00047EA8357A4FB076802958D0A05FB07853A
:1003F0004FEA932C04FB0C542705029D4FEA065844
:1004000047EA1637B5EB08056EEB070C870E920E20
:1004100047EA811742EA8312A7FB0201B6EB0B0100
:1004200064EB00042B0D43EA0C335E1844EB1C50C4
:10043000DA465146E7FB0201C5F313044FEA0B33DA
:1004400043EA14534FEA0432019C43EA0603A4F141
:100450000C040294009CCDE900B400F0BEF803B097
:10046000BDE8F08F00200146F9E7C10F80EAE07097
:100470000844CA079623002100F072B800F0004239
:1004800020F00040C10DC0F3160040F400007F29A9
:1004900001DA00207047962903DCC1F19601C840BB
:1004A00001E096398840002AF4D04042704700F0BD
:1004B000004230F000400AD0C10D01F56071C0F378
:1004C000160042EA0151C20840071143704700205C
:1004D0000146704701F0004330B421F0004150EA7A
:1004E000010206D00A0DA2F56072C1F31301002AC1
:1004F00002DC30BC00207047440F44EAC104C10054
:10050000E01830BC00EBC25000F021B8202A04DB18
:10051000203A00FA02F1002070479140C2F1200316
:1005200020FA03F3194390407047202A06DBCB17CB
:10053000203A41FA02F043EAE07306E041FA02F39E
:10054000D040C2F12002914008431946704700296B
:10055000A8BF7047401C490008BF20F00100704749
:1005600010B4B0FA80FC00FA0CF050EA010404BFA9
:1005700010BC704749B1CCF1200421FA04F411FAFF
:100580000CF118BF012121430843A3EB0C01CB1D43
:100590004FEA00614FEA102042BF002010BC7047B4
:1005A00000EBC35010440029A4BF10BC7047401C8E
:1005B000490008BF20F0010010BC704710B5141EA0
:1005C00073F1000408DA401C41F1000192185B410C
:1005D0001A4301D120F0010010BD2DE9F04D9246E3
:1005E0009B4611B1B1FA81F202E0B0FA80F22032FA
:1005F0009046FFF78BFF04460F4640EA0A0041EAA7
:100600000B0153465A46084313D0114653EA0100E2
:1006100019D0C8F14002504600F040F805460E4699
:10062000504659464246FFF771FF084305D0012066
:1006300004E020463946BDE8F08D0020054346EA37
:10064000E0762C4337430A986305E40AA0EB0800E0
:100650000022FD0A44EA47540A3002D50020014630
:10066000E9E7010510196941DDE90845001969410B
:10067000BDE8F04DA2E70000064C074D06E0E0683B
:1006800040F0010394E8070098471034AC42F6D3D9
:10069000FFF730FDE435000804360008202A04DBAB
:1006A000203A21FA02F00021704721FA02F3D040EB
:1006B000C2F120029140084319467047B0B5044684
:1006C00000688168C90709D0816821F00101816053
:1006D00000F0D8FD21688968C90701D10020B0BDAC
:1006E000054602E08068C007F8D000F0CBFD411B52
:1006F00020680329F6D38168C907F3D0A06A40F0C7
:100700001000A062E06A40F00100E0620120B0BD8C
:10071000B0B582B004460020019021688A68D207F3
:100720004FD1886840F00100886040F24400C2F276
:10073000000000684DF68361C4F21B31A0FB01018B
:10074000880C01900198A0B101980138019001989E
:1007500078B1019801380190019850B101980138A1
:100760000190019828B10198013801900198002862
:10077000EAD100F087FD21688968C9071CD10546C8
:1007800003E000BF8068C0071AD100F07BFD411B69
:1007900020680329F6D38168C907F3D1A06A40F025
:1007A0001000A062E06A40F00100E062002084F8DE
:1007B0002400012002B0B0BD002002B0B0BD00BFD7
:1007C000002002B0B0BD0000FEE70000704700004E
:1007D00070B582B004460020019094F824000128EE
:1007E00004D10225284602B070BD00BF012084F864
:1007F00024002046FFF762FF2046FFF789FF0546E9
:10080000002867D1A06A41F2021188430230A06239
:1008100040F24400C2F200000668022000F0F0FD41
:10082000B6FBF0F0400001900198A0B101980138AA
:100830000190019878B1019801380190019850B168
:10084000019801380190019828B101980138019070
:1008500001980028EAD12068816841F00801816090
:1008600000F010FD21688A6812070DD4886840F0F6
:100870000400886000F006FD21688968490713D4E8
:1008800001206FF0030121E0064602E088680007BE
:10089000ECD500F0F7FC801B21680B28F6D38868A4
:1008A0000007F3D50EE000BF064602E0806840076F
:1008B000E6D500F0E7FC811B20680B29F6D38168A0
:1008C0004907F3D5012510206FF01201A26A1140EB
:1008D0000843A062002084F82400284602B070BDBE
:1008E00010B581B00022009290F82420012A03D193
:1008F0000221084601B010BD4B680122062B80F88A
:10090000242017D8D0F800C003EB83035A1F1F23FD
:10091000DCF834E003FA02F40B682EEA040403FA6C
:1009200002F22243CCF83420092B03EB430219D9FD
:1009300036E000BFD0F800C00C2B03EB83021DD8BB
:10094000233A1F23DCF830E003FA02F40B682EEAA6
:10095000040403FA02F22243CCF83020092B03EB03
:1009600043021DD8DCF81030072489689440A34363
:1009700091401943CCF81010002130E0413A1F2378
:10098000DCF82CE003FA02F40B682EEA040403FA04
:1009900002F22243CCF82C20092B03EB4302E1D9CD
:1009A000DCF80CE01E3A0724896894402EEA04041F
:1009B000914023F001022143102ACCF80C100DD1F4
:1009C00042F20841C4F20101A1F1080294450DD0A0
:1009D000816A41F020018162012100E000210022B2
:1009E00080F82420084601B010BD00BF0A6812023A
:1009F00030D40A68102B42F400020A602CD140F275
:100A00004401C2F2000109684DF68362C4F21B3250
:100A1000A1FB0212910C01EB8101490000910099A8
:100A2000E1B10099013900910099C9B100990139EA
:100A300000910099B1B1009901390091009999B1E3
:100A4000009901390091009900294FF00001E8D187
:100A5000C5E700BF0021C2E70021C0E70021BEE7D3
:100A60000021BCE70021BAE70021B8E70068C06CAC
:100A700070470000B0B5002800F0A8800446806AE6
:100A800020B121688868C0070BD114E00020E06223
:100A900084F82400204600F09BF821688868C0078D
:100AA00009D0886820F00100886000F0EBFB216825
:100AB0008A68D20726D1A06AC0063AD4A06A41F259
:100AC000021290430230A062E069D4E9013240EAA8
:100AD000030C531EB3FA83F35D091346B2F5807F0E
:100AE00018BF2B02207D257B01284CEA450030D120
:100AF00035B3A56A45F02005A562E56A45F0010514
:100B0000E56226E0054602E08868C007D3D000F021
:100B1000B9FB401B21680328F6D38868C007F3D0CF
:100B2000A06A40F01000A062E06A40F00100E062BC
:100B3000A06AA06A40F01000A0620120B0BD00BF12
:100B4000D4F818C04EF60005CFF6FF7505EB4C350E
:100B50002B434D68B2F5807F25F4694543EA0503D0
:100B60004B608B684FF2FD75CFF6E17503EA050324
:100B700043EA00038B6001D0012A07D122690023D8
:100B8000CFF6F07303EB025201E000BF0022CB6A04
:100B900023F470031A43CA62896840F6FE62CFF6F6
:100BA0001F721140814207D10020E062A16A012238
:100BB00062F30101A162B0BDA06A40F0100020F014
:100BC0000200A062E06A40F00100E0620120B0BDD6
:100BD00080B586B0006842F60001C4F20101884287
:100BE0004FF00001CDE90411CDE9021122D042F20B
:100BF0000041C4F2010188423FD141F21800C4F221
:100C00000200016841F400710160016801F40071A3
:100C100001910199016841F004010160006810210F
:100C200000F004000190019840F60000C4F20100B9
:100C30001DE000BF41F21800C4F20200016841F457
:100C400080610160016801F480610191019901688E
:100C500041F0080101600068012100F008000190E6
:100C6000019840F60000C4F2010000F58060029196
:100C70000321039102A900F0F1F906B080BD000044
:100C8000F0B581B000270D460446009700F0FAFA4F
:100C900021688A68D20543D406464868C00503D453
:100CA000C86A10F4700F45D040F24400C2F2000050
:100CB0000768022000F0A4FB216844F624130A69A7
:100CC000B7FBF0F0C2F292431A4206D1CA6844F66A
:100CD0002413C0F292031A425ED00A6942F2924390
:100CE000C1F249231A4207D1CA6842F29243C0F2C4
:100CF00049031A4200F0C0800A6949F24923C0F250
:100D000024031A424FF0FC0257D1CF681F4208BF9C
:100D10005422009B02FB00F7BB4253D3C3E000BF49
:100D2000A06A40F02000A06284F82470012001B085
:100D3000F0BD00BF0868800700F1B580681C00F0B6
:100D4000A880FDB90868800772D50868800700F19F
:100D5000AA80086880076BD50868800700F1A38027
:100D60000868800764D50868800700F19C800868DF
:100D700080075DD508688007E4D594E0086880079F
:100D800000F1918000F07EFA801B2168A842F5D91D
:100D900008688007F2D44BE00A6942F29243C1F23C
:100DA00049231A424FF0290207D1CB6842F29247F9
:100DB000C0F249073B4208BF1422009B02FB00F728
:100DC000BB4270D2681C4FD055BB0098B8422FD39D
:100DD0000098013000900098B84264D20098B84260
:100DE00026D30098013000900098B8425BD200985A
:100DF000B8421DD30098013000900098B84252D2FA
:100E00000098B84214D30098013000900098B8427E
:100E1000DBD348E00098013000900098B84233D20C
:100E200000F030FA801BA842F4D90098B842F1D201
:100E3000A06A40F00400A062002084F8240003208F
:100E400001B0F0BD0098013000900098B8422AD25D
:100E50000098013000900098B84224D200980130E8
:100E600000900098B8421ED200980130009000987F
:100E7000B842E7D317E000BF5422009B02FB00F703
:100E8000BB429FD30FE000BF21680CE008688007D9
:100E900009D40868800706D4086880075CBF086822
:100EA0005FEA8070F2D56FF012000860A06A40F42B
:100EB0000070A062886800F46020B0F5602F01D156
:100EC000207B18B1002001B0F0BD00BFA06A20F463
:100ED0008070A062A06AC004F4D4A06A40F001004F
:100EE000A062002001B0F0BD10B5044690F82400C7
:100EF000012804BF022010BD012084F824002046F0
:100F0000FFF706FC20B1002184F8241010BD00BFBB
:100F100042F2044C2068A16AC4F2010C40F2013292
:100F200091430CF57F7201F580719042A16233D03C
:100F3000A16A21F48011A1624168490504D5A16A22
:100F4000012363F30D31A162A16A0023C9044FF0AC
:100F5000000144BFE16A21F00601E1626FF0020185
:100F600084F824300160816801F46021B1F5602FBC
:100F700006D190420AD1DCF8001011F4702F05D090
:100F8000816841F480118160002010BD816841F4C6
:100F9000A0018160002010BDDCF8001011F4702F5A
:100FA000C6D0A16A41F48011A162DCF800104905A5
:100FB000C5D4C9E7B0B5044690F82400012804BFA1
:100FC0000220B0BD0121206884F824108168C9077F
:100FD00009D0816821F00101816000F053F9216896
:100FE0008968C9070ED1214651F8280F41F2011234
:100FF00020EA0202002042F001020A60002184F887
:101000002410B0BD054602E08068C007EBD000F0B8
:1010100039F9411B20680329F6D38168C907F3D049
:10102000A06A214640F01000A06251F82C2F012048
:10103000E1E70000B0B5044600F024F9054640F2AF
:101040000000C2F200000078611C18BF044400BF19
:1010500000F018F9401BA042FAD3B0BD2DE9F04FC3
:1010600082B00E68002E00F0038141F20042C4F20B
:101070000102042340F2004E904208BF03234FF6C2
:10108000FF7CC4F2010E009300240123C1F2100C76
:101090004FF0000A4FF0000949E000BF012704F0BB
:1010A0000C030F229A402BEA020207FA03F34FEADD
:1010B0009A051A4346F82520D1F804B040F20C45B1
:1010C0005FEACB22DEF8082054BF22EA080242EA97
:1010D0000802C4F20105CEF808202A685FEA8B23D3
:1010E00054BF22EA080242EA08022A605FEA8B3310
:1010F000DEF8042054BF22EA080242EA08025FEA4E
:10110000CB33CEF80420DEF800204FF0010354BFAB
:1011100022EA080242EA0802CEF800200E680AF12C
:10112000010A36FA0AF204F1040400F0A18003FA7D
:101130000AF816EA080FF1D04E68664512DC122E46
:1011400056D8DFE806F0350B4549555555555555E8
:10115000555555555555554D510000BFD1F80C907A
:1011600046E000BF4FF6FF72C1F2210296420FDC4B
:101170000022C1F2110296421AD00022C1F21202DC
:10118000964215D00022C1F22102964210D02FE0E3
:101190000022C1F2220296420AD00022C1F231029C
:1011A000964205D00022C1F23202964220D100BF01
:1011B0008A684AB1012A14BFC0F81480C0F81080B0
:1011C0004FF0080914E000BF4FF0040910E000BF21
:1011D000CA6802F108090BE04FF0000908E000BFFF
:1011E000CA6802F1040903E0CA6802F10C0900BFF1
:1011F00022460646BAF1080F24BF203A0436376863
:101200000F25954027EA050509FA02F22A433260C4
:10121000CA79D2067FF582AF41F21803C4F2020305
:101220001A68AEF57E7642F001021A601A6802F082
:1012300001020192019A2AF0030256F802B040F628
:101240000002C4F20102904210D040F60042C4F203
:10125000010290423FF422AF41F20002C4F20102C7
:10126000009F904208BF022719E700BF002716E73A
:1012700002B0BDE8F08F0000002A08BF0904016138
:101280007047000040F29C20C2F2000000687047E6
:1012900040F2000040F29C21C2F20000C2F20001C4
:1012A00000780A68104408607047000080B542F278
:1012B0000000C4F20200016841F010010160032047
:1012C00000F08EF80F2000F005F800F027F800205D
:1012D00080BD000070B540F20006C2F2000640F288
:1012E00044013278C2F200014FF47A730968B3FB0B
:1012F000F2F20446B1FBF2F1084600F061FC0F2C5B
:101300004FF0010508D838B94FF0FF3021460022D0
:10131000002500F039F87460284670BD82B041F2B3
:101320001800C4F202000168022241F001010160CC
:10133000016801F0010101910199416841F080517A
:101340004160406800F08050009000980420C4F292
:101350000100016862F31A61016002B07047000089
:10136000002848BF7047C1B200F01F00012202FAF6
:1013700000F04EF20012CEF2000242EAD10121F05A
:10138000030108607047000010B54EF60C5CCEF209
:10139000000CDCF80030C3F3022E8EF00704042C9E
:1013A00028BF0424BEF103034FF0FF3E0EFA04F4FD
:1013B00038BF0023A14399400EFA03F39A43114327
:1013C00000F00F0200F160430901043A03F56443A1
:1013D0006244002848BF02F10C03197010BD0000E0
:1013E0004EF60C51CEF200010A684FF6FF031A4088
:1013F00060F30A2242F0806040F0FD7008607047A0
:1014000080B5012818D0022836D0102832D141F2F8
:101410000401C4F202010A6851F8040CC00129D584
:10142000C2F383402DA3185CD2033DD440F60012D2
:10143000C0F23D02504343E041F20400C4F2020016
:10144000C16940F202320A40B2F5817F04BF4FF415
:10145000004080BD01F44071B1F5407F1CD0B1F572
:10146000007F07D1006A49F64041800701EAE07039
:1014700080BD00BF002080BD00F0B4F941F204013E
:10148000C4F2020109680222C1F3813102EB410179
:10149000B0FBF1F080BD00BF50F8040C4FF22441C6
:1014A000800301EAE07080BD0A6810A3C2F34042E5
:1014B0009A5C41F20023C0F27A03B3FBF2F250438C
:1014C0000968490248BF80BD4AF6AB214000CAF610
:1014D000AA21A0FB0101480880BD00BF020304054A
:1014E000060708090A0B0C0D0E0F10100102000070
:1014F0002DE9F04182B00446007841F21C06C00795
:10150000C4F202064AD0306810F0805808D1306822
:1015100040F080503060306800F0805001900198B9
:1015200047F20007C4F200073868C00512D43868D3
:1015300040F480703860FFF7A5FE05463868C005A6
:1015400008D4FFF79FFE401B6428F7D9032002B0A0
:10155000BDE8F081706810F4407012D0616801F449
:10156000407188420DD0706840F24042C4F242227D
:10157000012320F4407113600023C00713607160E1
:101580002AD17068616820F440700843B8F1000FF8
:10159000706003D1306820F080503060206881078F
:1015A00007D556F8181CA26821F44041114346F8AB
:1015B000181CC00604D4002002B0BDE8F08100BFB2
:1015C00056F8180CE16820F48000084346F8180C1F
:1015D000002002B0BDE8F081FFF754FE054641F25D
:1015E000883700BF70688007CBD4FFF74BFE401BE5
:1015F000B8424FF00300F5D9EBE700002DE9F043C6
:1016000081B0002800F0858042F20008C4F2020890
:101610000446D8F800000D4600F0070088420CD2BE
:10162000D8F8000020F007002843C8F80000D8F8D8
:10163000000000F00700A8426BD1206841F20409C5
:101640008107C4F2020917D5410705D5D9F8001062
:1016500041F4E061C9F80010010705D5D9F8001080
:1016600041F46051C9F80010D9F80010A26821F0C7
:10167000F0011143C9F80010C00741D1D8F80000AB
:1016800000F00700A8420CD9D8F8000020F00700AD
:101690002843C8F80000D8F8000000F00700A8426E
:1016A00037D12068410707D5D9F80010E26821F446
:1016B000E0611143C9F80010000708D5D9F800000F
:1016C000216920F4605040EAC100C9F80000D9F84F
:1016D000002002F00C00082841F20020C0F27A003D
:1016E00050D143F2D253C2F38341C0F60003595C98
:1016F000D2033BD440F60010C0F23D00484341E025
:10170000606802280AD001282AD159F8041C8903EC
:1017100008D4012001B0BDE8F08300BF59F8041CD3
:101720008901F6D5D9F8001021F003010843C9F862
:101730000000FFF7A7FD064641F28837D9F8000000
:10174000616800F00C00B0EB810F97D0FFF79AFDB5
:10175000801BB842F2D9032001B0BDE8F08300BF7E
:1017600059F8041C8907D4D5DCE700BFD9F800205C
:1017700043F2D053C2F34042C0F600039A5C4843A0
:10178000B0FBF2F0D9F8001043F2B852C1F30311E4
:10179000C0F60002515C40F2440220FA01F140F22E
:1017A0000400C2F200000068C2F200021160FFF7FC
:1017B00091FD002001B0BDE8F083000040F244003C
:1017C00041F20401C2F20000C4F20201006809689B
:1017D00043F2C852C1F30221C0F60002515CC84076
:1017E0007047000040F2440041F20401C2F20000E0
:1017F000C4F202010068096843F2C852C1F3C22171
:10180000C0F60002515CC840704700002DE9F0416D
:1018100082B0002868D00446007841F20006C00774
:10182000C4F2020625D0706800F00C0004281BD01A
:10183000706800F00C00082802D17068C00313D44F
:101840006068002800F06881B0F5A02F00F07C816E
:10185000B0F5803F00F07C81306820F4803030604B
:10186000306820F4802076E13068800301D560681C
:10187000D0B32078800718D5706810F00C0F07D00F
:10188000706800F00C0008286ED17068C0036BD43B
:101890003068800702D52069012825D13068616948
:1018A00020F0F80040EAC1003060207800071FD423
:1018B0002078400732D4E56995B1706800F00C00DB
:1018C000082840F08F80012D0ED07068216A00F446
:1018D00080328A4208D1616A00F47010884203D1D4
:1018E000002002B0BDE8F081012002B0BDE8F08127
:1018F000A069002862D00020C4F242200121C0F873
:101900008014FFF7BFFC0546706A800700F18C80E9
:10191000FFF7B8FC401B0228F6D92AE1F06910F065
:10192000805808D1F06940F08050F061F06900F013
:1019300080500090009847F20007C4F20007386812
:10194000C00529D4386840F480703860FFF79AFCED
:10195000054600BF3868C0051ED4FFF793FC401B46
:101960006428F7D905E100BF2069002840F2000093
:10197000C4F2422000F0828001210160FFF782FC66
:10198000054600BF306880073FF588AFFFF77AFC57
:10199000401B0228F6D9ECE0E068002800F08080C7
:1019A000052800F09780012800F09880306A20F028
:1019B00001003062306A20F0040092E00020C4F29E
:1019C00042200021C0F88014FFF75CFC054600BFF0
:1019D000706A80077FF56CAFFFF754FC401B02284C
:1019E000F6D9C6E00027C4F2422700203866FFF788
:1019F00049FC022D05460BD13068800140F1BE80C4
:101A0000FFF740FC401B02284FF00300F4D968E7C1
:101A1000306880017FF564AFFFF734FC401B02287B
:101A20004FF00300F4D95CE740F24400C2F200003A
:101A3000006844F6D351C1F26201A0FB0101480ADB
:101A4000019000BF00BF0198411E002801913FF4A2
:101A50002FAF00BF0198411E002801913FF428AF2D
:101A600000BF0198411E002801913FF421AF00BF43
:101A70000198411E00280191E4D119E7002101607D
:101A8000FFF700FC054600BF306880077FF50DAF0B
:101A9000FFF7F8FB401B02284FF00300F4D920E7C2
:101AA000306A20F001003062306A20F004003062B9
:101AB000FFF7E8FB054641F2883700BF306A800730
:101AC00020D5FFF7DFFB401BB8424FF00300F5D9EC
:101AD00007E700BF306A40F004003062306A40F02F
:101AE00001003062FFF7CEFB054641F2883700BFA8
:101AF000306A800706D4FFF7C5FB401BB842F7D910
:101B000037E000BFB8F1000F7FF4D5AEF06920F0E8
:101B10008050F061CFE600BF306820F48030306044
:101B2000306820F480203060FFF7ACFB054600BF32
:101B3000306880037FF59DAEFFF7A4FB401B64284F
:101B40004FF00300F4D9CCE6306840F480203060D8
:101B5000306840F480303060FFF794FB054600BFEA
:101B6000306880033FF585AEFFF78CFB401B64288F
:101B7000F6D9032002B0BDE8F08100BF206AB0F5BD
:101B8000803F05D17168A26821F400311143716072
:101B90007168626A21F47411114308437060012076
:101BA0003866FFF76FFB0446306880013FF598AE5A
:101BB000FFF768FB001B02284FF00300F4D990E602
:101BC000411E0020B0EB116F1CBF012070474EF288
:101BD0001002CEF2000251604EF62351CEF2000107
:101BE000F0230B7007219060116070477047000070
:101BF00070470000B0B590F83C20012A04BF0220D5
:101C0000B0BD01F108053CCDD1E900CE23F47C53F1
:101C100022F470521A432EF4F0431A432CF4E0439A
:101C20001A4324F4C0431A432A43C96922F4804268
:101C3000036811435964002180F83C100846B0BD88
:101C400010B590F83C20012A4FF0020233D080F802
:101C50003D200268D2F804E0D2F808C00C682EF0EB
:101C60007003234340F2FF74C4F20004A2425360A5
:101C70000ADCB2F1804F13D040F20043C4F20003FB
:101C80009A420DD011E000BF42F60043C4F20103B6
:101C90009A4205D040F60003C4F200039A4204D1F0
:101CA00049682CF08003194391600121002280F8DB
:101CB0003D1080F83C20104610BD0000002804BFF5
:101CC0000120704710B5044690F83D0028B9002067
:101CD00084F83C00204600F067F8022084F83D00BC
:101CE000206840F2FF730268C4F2000342F6004C21
:101CF0009842C4F2010C15DCB0F1804F1AD040F2CA
:101D00000041C4F20001884214D0984218DCB0F1BE
:101D1000804F1DD040F20041C4F20001884217D02C
:101D20001AE000BF604505D040F60001C4F2000192
:101D30008842EAD1A16822F070020A439842E6DDA7
:101D4000604505D040F60001C4F20001884203D18D
:101D5000216922F440720A43A36922F08001D4F879
:101D600004E0E268194360450160C262C0F828E0FF
:101D700002D16169CCF8301001214161002084F862
:101D8000461084F83E1084F83F1084F8401084F820
:101D9000411084F8421084F8431084F8441084F809
:101DA000451084F83D1010BD80B582B0006840F247
:101DB0000041C4F20001884214D042F60041C4F24E
:101DC000010188420CD141F21800C4F202000168FE
:101DD00041F400610160006800F400600190019826
:101DE00002B080BD41F21800C4F202004168002236
:101DF00041F0020141604068012100F002000090C2
:101E000000981D20FFF7C0FA1D2002B0BDE88040F9
:101E1000FFF7A6BA90F83D1001291CBF01207047BA
:101E2000022180F83D10006840F2FF72C168C4F2E0
:101E30000002904241F00101C16009DCB0F1804F25
:101E400012D040F20041C4F2000188420CD012E0EE
:101E500042F60041C4F20101884205D040F600017B
:101E6000C4F20001884206D1816801F00701062909
:101E700004BF00207047016841F0010101600020AB
:101E80007047000080B590F83C20012A4FF0020214
:101E900000F0C28080F83D20D0F800C04FF6777285
:101EA000DCF8083023EA0202CCF808200B684F2B3C
:101EB00028DC1F2B44DD202B45D0302B43D0402B7A
:101EC00040F0AC80D1F804E0C968DCF82030DCF8E0
:101ED000202022F00102CCF82020DCF8182022F08B
:101EE000F00242EA011123F00A0242EA0E02CCF8A3
:101EF0001810CCF82020DCF8081041F0470121F040
:101F0000300180E06F2B27DDB3F5005F48D0B3F5DB
:101F1000805F7AD0702B40F08180D1E901E3C968FD
:101F2000DCF8082043EA0E0322F47F4243EA012151
:101F30001143CCF80810DCF8081041F0770162E09A
:101F40000BB1102B6AD1DCF8081021F07001194395
:101F500041F0070157E000BF502B35D0602B5DD119
:101F6000D1F804E0C968DCF82030DCF8202022F049
:101F70001002CCF82020DCF8182022F4704242EA4B
:101F8000013123F0A00242EA0E12CCF81810CCF86E
:101F90002020DCF8081041F0670121F0100132E048
:101FA000D1E901E3C968DCF8082043EA0E0322F412
:101FB0007F4243EA01211143CCF80810DCF80810F5
:101FC00041F480411FE000BFD1F804E0C968DCF8AB
:101FD0002030DCF8202022F00102CCF82020DCF8B0
:101FE000182022F0F00242EA011123F00A0242EA2C
:101FF0000E02CCF81810CCF82020DCF8081041F0C4
:10200000570121F02001CCF808100022012180F8AE
:102010003D10002180F83C10104680BD0122F5E7FC
:10202000002804BF012070472DE9F04F81B004461D
:1020300090F83D000D4628B9002084F83C00204669
:1020400000F094F8022084F83D00206844F2070272
:10205000816840F2FF73914381600268C4F200031B
:1020600042F6004C9842C4F2010C15DCB0F1804FEE
:102070001AD040F20041C4F20001884214D09842C4
:1020800018DCB0F1804F1DD040F20041C4F20001D5
:10209000884217D01AE000BF604505D040F6000125
:1020A000C4F200018842EAD1A16822F070020A431A
:1020B0009842E6DD604505D040F60001C4F200011B
:1020C000884203D1216922F440720A43A36922F0B5
:1020D0008001D4F804E0E268194360450160C262FF
:1020E000C0F828E002D16169CCF830104FF0010946
:1020F000C0F814908268D0F818E0D0F820C0D5E974
:102100000038D5E9027B43EA020AAB694FF6FF715A
:102110002EEA010E47EA03234FF6FC47BB43D5E9FD
:1021200007724BEA0E012E69194341EA072141EA81
:10213000061141EA02312CF022026B6942EA0802E0
:1021400042EA0312C0F808A08161026284F8469056
:1021500084F83E9084F83F9084F8429084F843904D
:1021600084F83D90002001B0BDE8F08F80B586B0C6
:10217000006840F60001C4F2000188424FF00001FF
:10218000CDE90411CDE902111ED0B0F1804F3FD14D
:1021900041F21800C4F20200416841F001014160BF
:1021A000416801F0010101910199016841F00401C8
:1021B00001600068032100F004000190019840F6DE
:1021C0000000C4F201001CE041F21800C4F2020059
:1021D000416841F004014160416801F0040101914E
:1021E0000199016841F0080101600068C02100F018
:1021F00008000190019840F60000C4F2010000F5CB
:10220000806002910021CDE9031102A9FEF726FFAB
:1022100006B080BD80B590F83E2090F83F3090F831
:1022200042E090F843C004290AD0B9B9012A4FF01E
:10223000010208BFBEF1010F34D0104680BD00BFBF
:10224000012B4FF0010208BFBCF1010FF5D10221B3
:1022500080F83F1080F8431000681EE0012A4FF01C
:10226000010208BF012BE8D1BEF1010FE5D1BCF19D
:10227000010FE2D1022280F83E2080F83F2080F852
:10228000422080F8432091B10068016A21F00101E9
:102290000162016A41F00101016210216FF0100238
:1022A00009E000BF022180F83E1080F8421000686B
:1022B00001216FF00102036A1A400262026A1143AF
:1022C00001620168002241F001010160104680BDF9
:1022D0007047000010B5016804460869800744BFD4
:1022E000C8685FEA807039D40869400744BFC8688D
:1022F0005FEA40703ED40869000744BFC8685FEADF
:10230000007045D40869C00644BFC8685FEAC06071
:102310004AD40869C0071CBFC8685FEAC07051D1C1
:102320000869000644BFC8685FEA006052D40869C3
:10233000400644BFC8685FEA406053D4086980061D
:1023400046BFC8685FEA806010BD6FF0200220467B
:102350000A61BDE81040FFF74BBC00BF6FF0020000
:102360000861012020778869800743D02046FFF765
:10237000AFFF45E06FF00400086102202077886914
:1023800010F4407F40D02046FFF7A2FF42E000BF9C
:102390006FF00800086104202077C86980073DD0ED
:1023A0002046FFF795FF3FE06FF01000086108201E
:1023B0002077C86910F4407F3AD02046FFF788FFA5
:1023C0003CE000BF6FF001000861204600F054FAC5
:1023D0002168A5E76FF0800008612046FFF706FC42
:1023E0002168A4E76FF040000861204600F05CFB24
:1023F0002168A3E7204600F04DF8204600F0CAF916
:102400002168002020776FE7204600F043F820463F
:1024100000F0C0F92168002020776CE7204600F02A
:1024200039F8204600F0B6F921680020207769E7E6
:10243000204600F02FF8204600F0ACF9216800207B
:10244000207766E780B586B0014640F60000C4F20A
:102450000100096800F5105300229942049201D04E
:1024600006B080BD41F21801C4F202010A6842F0D0
:1024700004020A60096801F00401019101994FF416
:102480001061029102210391059102A9FEF7E6FD78
:1024900006B080BD704700002DE9F04390F83C3055
:1024A000012B04BF0220BDE8F0834FEAB202032AE9
:1024B0003CD8DFE802F0034381BD00BF036842F669
:1024C00000461D6A1A6AC4F2010622F001021A626D
:1024D0001A465C6852F818CFB3428E68D1F800E013
:1024E00025F0020545EA06050CD1CE68D1E905784C
:1024F00024F4407425F00C0526F004063C433543D3
:1025000044EA08042CF0730747EA0E075C609F61F9
:102510004F6809695F631D629F6947F008079F6103
:102520009F6927F004079F61B2E000BF01210022EC
:1025300080F83C200846BDE8F08300BF036842F6FF
:1025400000461D6A1A6AC4F2010622F010021A62DD
:102550001A46D3F804C052F8184FB3428E68D1F827
:1025600000E025F0200545EA061510D1CE68D1E936
:10257000058725F0C0096FF0400505EA06152CF423
:10258000406647EA080745EA090546EA870C24F44D
:10259000E64444EA0E27C3F804C09F614F68096906
:1025A0009F631D629F6947F400679F619F6927F4DD
:1025B00080679F616BE000BF036842F600461D6ABA
:1025C0001A6AC4F2010622F480721A621A46D3F81B
:1025D00004C052F81CEFB3428E680C6825F40075F5
:1025E00045EA062511D1CE68D1E9058725F4406971
:1025F000360240F2FF4526EA05052CF4405647EA2C
:10260000080745EA090546EA071C2EF07307274329
:10261000C3F804C0DF614F680969DF631D62DF69C9
:1026200047F00807DF61DF6927F00407DF612FE06B
:10263000036842F60047D3F820C01A6AC4F20107C3
:1026400022F480521A621A465C6852F81C5FD1F874
:1026500000E08E68BB4204D14F6924F4804444EA10
:1026600087142CF4005747EA063725F4E64646EA75
:102670000E265C60DE614E6809691E641F62DF69B8
:1026800047F40067DF61DF6927F48067DF610902D3
:102690001368194311600021002280F83C2008468D
:1026A000BDE8F083002804BF0120704710B5044640
:1026B00090F83D0028B9002084F83C00204600F046
:1026C00067F8022084F83D00206840F2FF7302683A
:1026D000C4F2000342F6004C9842C4F2010C15DC2F
:1026E000B0F1804F1AD040F20041C4F2000188429C
:1026F00014D0984218DCB0F1804F1DD040F2004158
:10270000C4F20001884217D01AE000BF604505D02E
:1027100040F60001C4F200018842EAD1A16822F02B
:1027200070020A439842E6DD604505D040F600019C
:10273000C4F20001884203D1216922F440720A43A5
:10274000A36922F08001D4F804E0E26819436045EF
:102750000160C262C0F828E002D16169CCF8301093
:1027600001214161002084F8461084F83E1084F86D
:102770003F1084F8401084F8411084F8421084F827
:10278000431084F8441084F8451084F83D1010BDBF
:10279000704700007047000041B1082910D004299B
:1027A00014BF00F1410200F13F020BE090F83E201F
:1027B000012A1CBF01207047022280F83E2013E04E
:1027C00000F140021278012A1CBF0120704702224A
:1027D000082907D0042914BF80F8412080F83F2041
:1027E00002E000BF80F84020006801F01F010122D4
:1027F000036A8A4023EA02010162036A42F6444105
:10280000C4F201011A43A1F14403984202620FD0BD
:1028100040F2FF71C4F20001884213DCB0F1804F36
:102820001CD040F20041C4F20001884216D01CE0E6
:102830000A6842F400420A6040F2FF71C4F20001EB
:102840008842EBDD42F60041C4F20101884205D026
:1028500040F60001C4F20001884206D1816801F00F
:102860000701062904BF00207047016841F00101FB
:10287000016000207047000040F2C411C2F2000164
:10288000884218BF70472DE9F04F81B0022000F058
:1028900073FE40F2A809C2F20009C9F8040004203E
:1028A00000F06AFEC9F8080000F038FD00F0C4F935
:1028B0004038FDF7DAFD0446FDF7F9FD8046D9F80A
:1028C00008000E46D9E9001B00902046FDF77CFC6D
:1028D000FDF7EDFD49F69A1249F6991307460D46A4
:1028E000C9F69912C3F6B97340463146FDF74BFD60
:1028F0003A462B46FDF7A0FCFDF7ECFDC9F8004079
:1029000040F20809C2F200090546D9E90008D9F8E1
:102910000860D9F818A0FDF7A8FD4CF28F210746F2
:10292000C3F6F5512846FDF755FC4FF07C51FDF7F5
:1029300051FC054638462946FDF746FC0446284624
:102940003946FDF7EFFB05462046FDF797FDA0EB66
:102950000B07A7EB0A00FDF788FD04463846FDF794
:1029600084FD01463046FDF735FC064640462146CB
:10297000FDF730FC3146FDF7D5FBD9F81C100446B5
:102980000846FDF772FD01462046FDF7CBFBFDF73B
:1029900075FD04462846C9F81870FDF76FFD0099CB
:1029A000D9F82080451AD9F83400281AFDF75DFDC2
:1029B000D9F8247006462846FDF757FD01463846EB
:1029C000FDF708FC074640463146FDF703FC394653
:1029D000FDF7A8FBD9F8381006460846FDF745FD77
:1029E00001463046FDF79EFBFDF748FD4EF6784167
:1029F000CFF6FF718C4241F28832C9F83450D8BF0B
:102A00000C46944241F28833B8BF2346C9F81C30C3
:102A10008842C8BF014640F600459142A8BF114612
:102A2000C4F20105C9F838104FF4005128460122BC
:102A3000002CC8BF4FF48051FEF71EFC4FF48051AC
:102A400028460022002CC8BF4FF40051FEF714FCAA
:102A5000D9F838404FF4804128460122002CC8BFE5
:102A60004FF40041FEF708FC4FF4004128460022D5
:102A7000002CC8BF4FF48041FEF7FEFBD9F81C10B4
:102A800040F23412C2F20002D9F83800002948BFDF
:102A9000494212680028516348BF4042106401B0A7
:102AA000BDE8F04F7047000070470000002804BFE9
:102AB0000120704710B5044690F8410028B9002065
:102AC00084F84000204600F063F8242084F8410098
:102AD0002068D4E90212C36823F40053C360036979
:102AE00023F440531A430261D4E904231143C2681A
:102AF000194341F20C639A431143C1604169A269D1
:102B000021F44071114343F60002C4F201029042E5
:102B1000416103D0FEF752FE02E000BFFEF762FE05
:102B20006268192148439100B0FBF1F048F21F514F
:102B3000C5F2EB11A0FB01235A094FF69C73C0F6B6
:102B4000FF7302FB0300322303EB0010A0FB010123
:102B5000F02303EA5113206803EB0212C1F343117F
:102B600011448160016921F490410161416921F0C2
:102B70002A014161C16841F40051C1600020202157
:102B8000606484F8411084F84210606310BD000056
:102B900070B586B040F60004C4F20104006804F584
:102BA000405100268842049602D006B070BD00BF96
:102BB00041F21800C4F20200016802AD41F4804104
:102BC0000160016801F4804101910199016841F0BF
:102BD000040101600068294600F00400019001989A
:102BE0004FF40070029002200390032005902046CD
:102BF000FEF734FA4FF48060CDE9020620462946FC
:102C00000496FEF72BFA06B070BD0000FEE7000048
:102C1000FEE70000FEE7000070470000704700007C
:102C2000FEF736BB7047000040F2C410C2F200004D
:102C3000FFF750BBFEE7000010B540F2B40EC2F241
:102C4000000E724612F802C976236046D179147AD2
:102C50008842B8BF0146A142A8BF2146023B02F10B
:102C600002020846F2D1AEF102027623D079147A3C
:102C70008445C8BF6046A042D8BF2046023B02F14F
:102C800002028446F2D1084400EBD070C0F3470141
:102C9000002200E004320EEB0203587981420FD289
:102CA000987981420CD2D879814209D2187A81422E
:102CB00006D9587A814203D9987A8842C0F0BA80FE
:102CC000702A3DD09879814210D2D87981420DD2B4
:102CD000187A81420AD2587A814207D9987A814279
:102CE00004D9D87A8842C0F0A98000BFD87981423F
:102CF00010D2187A81420DD2587A81420AD2987A3B
:102D0000814207D9D87A814204D9187B8842C0F021
:102D1000998000BF187A8142BCD2587A8142B9D2D8
:102D2000987A8142B6D2D87A8142B3D9187B81424F
:102D3000B0D9587B8842ADD202F1080C02E000BF46
:102D40004FF0760C002300E0043B0EEB030292F8F8
:102D50007600814203F1760014D992F87740A142BF
:102D600010D992F87840A1420CD992F87940A1424A
:102D700008D292F87A40A14204D292F87B408C4269
:102D80004DD800BF07284FD392F87500814213D960
:102D900092F8760081420FD992F8770081420BD9E0
:102DA00092F87800814207D292F87900814203D2EA
:102DB00092F87A00884249D892F87400814213D977
:102DC00092F8750081420FD992F8760081420BD9B2
:102DD00092F87700814207D292F87800814203D2BC
:102DE00092F87900884239D892F873008142ABD9C1
:102DF00092F874008142A7D992F875008142A3D954
:102E000092F8760081429FD292F8770081429BD25D
:102E100092F8780088427FF697AF03F17300604420
:102E200000EBD070401010BD0520604400EBD07066
:102E3000401010BD02F1050C84E700BF02F1060C42
:102E400080E700BF02F1070C7CE700BF03F17500CB
:102E5000604400EBD070401010BD00BF03F174005F
:102E6000604400EBD070401010BD000098B0FEF739
:102E70001DFA00240120CDE90544CDE9034400906A
:102E800004904FF4E0104FF4803102250990684619
:102E90001794CDE91544CDE90114CDE90751FEF7AA
:102EA000B5FC28B1EFF3108072B600BFFEE700BF9B
:102EB0000F20CDE90A054FF48060CDE90D040AA882
:102EC00002210C94FEF79AFB20B1EFF3108072B64A
:102ED000FEE700BF4FF400400226169014A8149697
:102EE000FEF706FB20B1EFF3108072B6FEE700BFDD
:102EF00041F21800C4F20200016840F6004841F0B7
:102F0000100101600168C4F2010801F01001009194
:102F100000990168A8F5806541F020010160016811
:102F2000002201F02001009100990168602441F025
:102F3000040101600168002701F00401009100997B
:102F4000016841F0080101600068602100F008009C
:102F5000009000982846FEF78FF940464FF2020194
:102F600000224FF20209FEF787F903966E4600949D
:102F7000012428463146CDE90147FEF76FF8404667
:102F80003146CDE90094CDE90274FEF767F840F2CE
:102F9000480008F5C051C2F200004FF460220773E8
:102FA0000775C261C0E9001787600461FDF762FD23
:102FB00020B1EFF3108072B6FEE700BF04208DE869
:102FC000910040F24800C2F200006946FDF788FC1B
:102FD00020B1EFF3108072B6FEE700BF40F2480563
:102FE000C2F200052846FDF7F3FB40F23410002141
:102FF00008F50052C2F2000041F61F431791CDE9D7
:103000001511CDE91211CDE90611CDE90411CDE973
:103010000211CDE90011C0E90021C0E90213C0E9A5
:1030200004118161FEF74AFE20B1EFF3108072B601
:10303000FEE700BF4FF48050149040F23410C2F20B
:10304000000014A9FEF71EFF20B1EFF3108072B646
:10305000FEE700BF40F23410C2F20000FFF722FB8F
:1030600020B1EFF3108072B6FEE700BF40F23410DB
:10307000C2F2000012A9FEF7E3FD28B1EFF31080C1
:1030800072B600BFFEE700BF60200A900020CDE9C5
:103090000B00CDE90D00CDE90F0040F23410C2F273
:1030A00000000AA90022FFF7F7F928B1EFF310801A
:1030B00072B600BFFEE700BF40F23410C2F200005B
:1030C0000AA90C22FFF7E8F920B1EFF3108072B6DD
:1030D000FEE700BF4FF40050059040F23410002688
:1030E000C2F2000069460496CDE90266CDE90066A9
:1030F0000796FEF77FFD18B1EFF3108072B6FEE77A
:1031000040F23410C2F20000FFF79CF940F27C104C
:10311000C2F200004FF08041C0E9001603214FF6D3
:10312000FF72CDE900160121C0E90262CDE9021665
:103130000A22CDE906166946CDE90A66066186616E
:10314000CDE904260892FEF76BFF18B1EFF310806B
:1031500072B6FEE740F27C10C2F200000AA9FEF748
:103160006FFD18B1EFF3108072B6FEE740F2C410A5
:103170000021A8F58432C2F2000041F61F43312736
:103180000391CDE90111CDE90A11C0E90023C0E99D
:10319000021701618161FEF791FD18B1EFF3108014
:1031A00072B6FEE74FF48050009040F2C410C2F2B5
:1031B00000006946FEF766FE20B1EFF3108072B69C
:1031C000FEE700BF40F2C410C2F200000AA9FEF7F9
:1031D00037FD18B1EFF3108072B6FEE740F25420CD
:1031E00008F53051C2F2000000240C234FF4E13204
:1031F00080E81600C0E90344C0E90534C461FFF764
:1032000055FC18B1EFF3108072B6FEE708F5E051F7
:10321000284640F8301F047304754FF46021C0E95C
:1032200001440124C1610461FDF724FC20B1EFF3E6
:10323000108072B6FEE700BF0820CDE9000402202E
:103240003035029069462846FDF74AFB20B1EFF37E
:10325000108072B6FEE700BF2846FDF7B9FA40F2CB
:103260000C200021A8F58232C2F200004FF6FF7355
:10327000C0E900210322C0E90213CDE900210122A7
:103280000A23CDE90A1101618161CDE90221CDE96D
:103290000431CDE9062169460893FEF7C1FE18B155
:1032A000EFF3108072B6FEE740F20C20C2F200008D
:1032B0000AA9FEF7C5FC18B1EFF3108072B6FEE75D
:1032C00040F27C10C2F200003C21FEF7A3FF40F266
:1032D0000C20C2F200003C21FEF79CFF40F23415A6
:1032E000C2F2000528460021FFF756FA28460C21B5
:1032F000FFF752FA40F2C410C2F20000FEF78AFD56
:10330000404602210122FDF7B7FF4FF4FA70FDF7A6
:1033100091FE4FF4FA70FDF78DFEFAE72DE9F04FBC
:1033200081B040F6000AC4F2010A44F64039504622
:1033300020210022C0F24C09FDF79EFF504640219B
:103340000022FDF799FF40F2440BC2F2000BDBF8BC
:1033500000004CF66B284845C6F65F3818D3A0FB32
:103360000801480D00EB800010F003010AD001298C
:1033700000BF01D1013805E000BF02291ABF0338A0
:1033800000BF023800BF00BF00BF043800BFF9D142
:10339000504640210122FDF76FFFDBF80000484551
:1033A00018D3A0FB0801480D00EB800010F00301CA
:1033B0000AD0012900BF01D1013805E000BF022970
:1033C0001ABF033800BF023800BF00BF00BF043877
:1033D00000BFF9D1504620210022FDF74DFFDBF858
:1033E0000000484518D3A0FB0801480D00EB800001
:1033F00010F003010AD0012900BF01D1013805E016
:1034000000BF02291ABF033800BF023800BF00BF47
:1034100000BF043800BFF9D1504620210122FDF73A
:103420002BFFDBF80000484518D3A0FB0801480D2E
:1034300000EB800010F003010AD0012900BF01D188
:10344000013805E000BF02291ABF033800BF023867
:1034500000BF00BF00BF043800BFF9D15046402173
:103460000022FDF709FFDBF80000484518D3A0FB58
:103470000801480D00EB800010F003010AD001297B
:1034800000BF01D1013805E000BF02291ABF03388F
:1034900000BF023800BF00BF00BF043800BFF9D131
:1034A00040F2480540F2B4040026C2F20005C2F220
:1034B000000402E00136802E5AD05046202100221E
:1034C000FDF7DAFEDBF80000484519D3A0FB080140
:1034D000480D00EB800010F003010BD0012900BF64
:1034E00002D1013806E000BF00BF02291ABF03382D
:1034F00000BF023800BF00BF00BF043800BFF9D1D1
:103500002846FDF7F1FC28464FF0FF31FDF7B8FBE8
:1035100010B1002704E000BF2846FDF7A7FA07090D
:103520002846FDF747FD504620210122A755FDF70B
:10353000A3FEDBF800004845BCD3A0FB0801480D02
:1035400000EB800010F003010AD0012900BF01D177
:10355000013805E000BF02291ABF033800BF023856
:1035600000BF00BF00BF043800BFF9D1A2E700BF11
:1035700001B0BDE8F08F000024220146C4F2000231
:1035800002284FF0000004D0042918BF704702F54C
:1035900000621168106008B2704702E008C8121F8C
:1035A00008C1002AFAD170477047002001E001C12C
:1035B000121F002AFBD1704700000000000000002D
:1035C00001020304060708090000000001020304C9
:1035D000010202030405060708090A0B0C0D0E0F71
:1035E000101000000836000800000020480000000D
:1035F0009A350008503600084800002058060000A0
:10360000AA350008000000000100000010000000C2
:10361000190000000000404100004041000000008F
:10362000000000000000000000000000000000009A
:103630000000404100004041000000000000000088
:103640000000000000000000000000000024F40062
:04000005080000ED02
:00000001FF
