:020000040800F2
:100000003807002001010008612C0008592C000865
:100010005D2C000841030008992D00080000000035
:10002000000000000000000000000000692C000833
:100030004503000800000000652C00086D2C000836
:100040001B0100081B0100081B0100081B01000820
:100050001B0100081B0100081B0100081B01000810
:100060001B0100081B0100081B0100081B01000800
:100070001B0100081B0100081B0100081B010008F0
:100080001B0100081B0100081B0100081B010008E0
:100090001B0100081B0100081B0100081B010008D0
:1000A0001B0100081B0100081B0100081B010008C0
:1000B0001B010008752C00081B0100081B0100082B
:1000C0001B0100081B0100081B0100081B010008A0
:1000D0001B0100088D2D00081B0100081B010008F2
:1000E0001B0100081B0100081B010008DFF80CD0F1
:1000F00000F06EF800480047C92E000838070020BD
:100100000648804706480047FEE7FEE7FEE7FEE7B1
:10011000FEE7FEE7FEE7FEE7FEE7FEE7712C0008DC
:10012000ED00000840EA01039B0703D009E008C97D
:10013000121F08C0042AFAD203E011F8013B00F8AC
:10014000013B521EF9D27047D2B201E000F8012BF8
:10015000491EFBD270470022F6E710B513460A4647
:1001600004461946FFF7F0FF204610BD2DE9F05F69
:100170000546002092469B46884606468146402416
:100180001BE0284641464746224600F042F85346C7
:100190005A46C01A914110D311461846224600F023
:1001A00029F82D1A67EB01084F462246012000214D
:1001B00000F020F817EB00094E41201EA4F10104C5
:1001C000DFDC484631462A464346BDE8F09F000042
:1001D000064C074D06E0E06840F0010394E8070094
:1001E00098471034AC42F6D3FFF784FF203900085B
:1001F00040390008202A04DB203A00FA02F10020EE
:1002000070479140C2F1200320FA03F31943904054
:100210007047202A04DB203A21FA02F000217047BF
:1002200021FA02F3D040C2F120029140084319465E
:1002300070470000B0B5044600688168C90709D05E
:10024000816821F00101816000F056FE2168896813
:10025000C90701D10020B0BD054602E08068C00793
:10026000F8D000F049FE411B20680329F6D38168CD
:10027000C907F3D0A06A40F01000A062E06A40F025
:100280000100E0620120B0BDB0B582B0044600209C
:10029000019021688A68D2074FD1886840F0010038
:1002A000886040F20C00C2F2000000684DF68361E5
:1002B000C4F21B31A0FB0101880C01900198A0B190
:1002C000019801380190019878B1019801380190A6
:1002D000019850B1019801380190019828B1019816
:1002E0000138019001980028EAD100F005FE21684C
:1002F0008968C9071CD1054603E000BF8068C007B4
:100300001AD100F0F9FD411B20680329F6D381685A
:10031000C907F3D1A06A40F01000A062E06A40F083
:100320000100E062002084F82400012002B0B0BD8A
:10033000002002B0B0BD00BF002002B0B0BD000080
:10034000FEE700007047000070B582B00446002050
:10035000019094F82400012804D10225284602B017
:1003600070BD00BF012084F824002046FFF762FF23
:100370002046FFF789FF0546002867D1A06A41F2B1
:10038000021188430230A06240F20C00C2F2000069
:100390000668022000F06EFEB6FBF0F0400001900F
:1003A0000198A0B1019801380190019878B10198A5
:1003B00001380190019850B10198013801900198DD
:1003C00028B101980138019001980028EAD12068ED
:1003D000816841F00801816000F08EFD21688A6823
:1003E00012070DD4886840F00400886000F084FD96
:1003F00021688968490713D401206FF0030121E0C7
:10040000064602E088680007ECD500F075FD801B09
:1004100021680B28F6D388680007F3D50EE000BFEB
:10042000064602E080684007E6D500F065FD811BC6
:1004300020680B29F6D381684907F3D501251020E0
:100440006FF01201A26A11400843A062002084F8F4
:100450002400284602B070BD10B581B00022009281
:1004600090F82420012A03D10221084601B010BDD2
:100470004B680122062B80F8242017D8D0F800C042
:1004800003EB83035A1F1F23DCF834E003FA02F462
:100490000B682EEA040403FA02F22243CCF834205B
:1004A000092B03EB430219D936E000BFD0F800C096
:1004B0000C2B03EB83021DD8233A1F23DCF830E01A
:1004C00003FA02F40B682EEA040403FA02F2224350
:1004D000CCF83020092B03EB43021DD8DCF8103098
:1004E000072489689440A34391401943CCF8101025
:1004F000002130E0413A1F23DCF82CE003FA02F43B
:100500000B682EEA040403FA02F22243CCF82C20F2
:10051000092B03EB4302E1D9DCF80CE01E3A072477
:10052000896894402EEA0404914023F0010221439B
:10053000102ACCF80C100DD142F20841C4F201018E
:10054000A1F1080294450DD0816A41F02001816239
:10055000012100E00021002280F82420084601B09B
:1005600010BD00BF0A68120230D40A68102B42F492
:1005700000020A602CD140F20C01C2F200010968AD
:100580004DF68362C4F21B32A1FB0212910C01EB07
:100590008101490000910099E1B100990139009170
:1005A0000099C9B10099013900910099B1B1009940
:1005B00001390091009999B1009901390091009990
:1005C00000294FF00001E8D1C5E700BF0021C2E7D4
:1005D0000021C0E70021BEE70021BCE70021BAE707
:1005E0000021B8E70068C06C70470000B0B5002873
:1005F00000F0A8800446806A20B121688868C0079E
:100600000BD114E00020E06284F82400204600F0C2
:100610009BF821688868C00709D0886820F001002D
:10062000886000F069FC21688A68D20726D1A06A38
:10063000C0063AD4A06A41F2021290430230A0628E
:10064000E069D4E9013240EA030C531EB3FA83F3A4
:100650005D091346B2F5807F18BF2B02207D257BF4
:1006600001284CEA450030D135B3A56A45F0200594
:10067000A562E56A45F00105E56226E0054602E06F
:100680008868C007D3D000F037FC401B21680328DE
:10069000F6D38868C007F3D0A06A40F01000A062CB
:1006A000E06A40F00100E062A06AA06A40F0100039
:1006B000A0620120B0BD00BFD4F818C04EF60005FE
:1006C000CFF6FF7505EB4C352B434D68B2F5807FB7
:1006D00025F4694543EA05034B608B684FF2FD75CD
:1006E000CFF6E17503EA050343EA00038B6001D00E
:1006F000012A07D122690023CFF6F07303EB0252DF
:1007000001E000BF0022CB6A23F470031A43CA62DF
:10071000896840F6FE62CFF61F721140814207D110
:100720000020E062A16A012262F30101A162B0BD72
:10073000A06A40F0100020F00200A062E06A40F0E1
:100740000100E0620120B0BD80B586B0006842F6CD
:100750000001C4F2010188424FF00001CDE904110B
:10076000CDE9021122D042F20041C4F201018842D7
:100770003FD141F21800C4F20200016841F4007157
:100780000160016801F4007101910199016841F073
:10079000040101600068102100F00400019001983C
:1007A00040F60000C4F201001DE000BF41F2180055
:1007B000C4F20200016841F480610160016801F443
:1007C000806101910199016841F0080101600068B0
:1007D000012100F008000190019840F60000C4F2E9
:1007E000010000F5806002910321039102A900F04D
:1007F0006FFA06B080BD0000F0B581B000270D464D
:100800000446009700F078FB21688A68D20543D43B
:1008100006464868C00503D4C86A10F4700F45D076
:1008200040F20C00C2F200000768022000F022FC37
:10083000216844F624130A69B7FBF0F0C2F2924330
:100840001A4206D1CA6844F62413C0F292031A422F
:100850005ED00A6942F29243C1F249231A4207D19B
:10086000CA6842F29243C0F249031A4200F0C080C3
:100870000A6949F24923C0F224031A424FF0FC02EC
:1008800057D1CF681F4208BF5422009B02FB00F7DC
:10089000BB4253D3C3E000BFA06A40F02000A06277
:1008A00084F82470012001B0F0BD00BF0868800703
:1008B00000F1B580681C00F0A880FDB908688007C9
:1008C00072D50868800700F1AA80086880076BD598
:1008D0000868800700F1A3800868800764D508686D
:1008E000800700F19C80086880075DD50868800754
:1008F000E4D594E00868800700F1918000F0FCFAEC
:10090000801B2168A842F5D908688007F2D44BE023
:100910000A6942F29243C1F249231A424FF0290276
:1009200007D1CB6842F29247C0F249073B4208BF69
:100930001422009B02FB00F7BB4270D2681C4FD010
:1009400055BB0098B8422FD3009801300090009812
:10095000B84264D20098B84226D300980130009083
:100960000098B8425BD20098B8421DD3009801307D
:1009700000900098B84252D20098B84214D3009820
:10098000013000900098B842DBD348E00098013075
:1009900000900098B84233D200F0AEFA801BA84213
:1009A000F4D90098B842F1D2A06A40F00400A062E5
:1009B000002084F82400032001B0F0BD009801302D
:1009C00000900098B8422AD2009801300090009818
:1009D000B84224D20098013000900098B8421ED24C
:1009E0000098013000900098B842E7D317E000BFAC
:1009F0005422009B02FB00F7BB429FD30FE000BFD5
:100A000021680CE00868800709D40868800706D4CC
:100A1000086880075CBF08685FEA8070F2D56FF0F5
:100A200012000860A06A40F40070A062886800F4B8
:100A30006020B0F5602F01D1207B18B1002001B0FB
:100A4000F0BD00BFA06A20F48070A062A06AC0045C
:100A5000F4D4A06A40F00100A062002001B0F0BD13
:100A600010B5044690F82400012804BF022010BDF0
:100A7000012084F824002046FFF706FC20B1002165
:100A800084F8241010BD00BF42F2044C2068A16A13
:100A9000C4F2010C40F2013291430CF57F7201F572
:100AA00080719042A16233D0A16A21F48011A162C9
:100AB0004168490504D5A16A012363F30D31A162A0
:100AC000A16A0023C9044FF0000144BFE16A21F08C
:100AD0000601E1626FF0020184F824300160816850
:100AE00001F46021B1F5602F06D190420AD1DCF803
:100AF000001011F4702F05D0816841F480118160DD
:100B0000002010BD816841F4A0018160002010BD6B
:100B1000DCF8001011F4702FC6D0A16A41F48011E6
:100B2000A162DCF800104905C5D4C9E7B0B5044698
:100B300090F82400012804BF0220B0BD01212068E4
:100B400084F824108168C90709D0816821F0010167
:100B5000816000F0D1F921688968C9070ED121466A
:100B600051F8280F41F2011220EA0202002042F05F
:100B700001020A60002184F82410B0BD054602E09D
:100B80008068C007EBD000F0B7F9411B206803294B
:100B9000F6D38168C907F3D0A06A214640F010005F
:100BA000A06251F82C2F0120E1E70000014690F8E7
:100BB0002100022816D10868D1E90FC3026822F08B
:100BC0000E020260026822F001020260012000FAB7
:100BD00003F2CCF8042081F821000020002281F8E3
:100BE00020207047042088630120002281F8202003
:100BF0007047000080B590F82110022924D10268C6
:100C0000116821F00E0111602F211368C4F2020156
:100C10008A4240F20401C4F2020123F0010313608E
:100C200016DD3023C4F202039A421DD04423C4F2DD
:100C300002039A421CD05823C4F202039A421DD1E7
:100C40004FF4803322E000BF04218163012080BD86
:100C50000823C4F202039A420ED01C23C4F20203FA
:100C60009A420BD1102311E04FF480730EE000BFC5
:100C70004FF480530AE000BF012307E001F1680C44
:100C80004FF08073624508BF4FF480130B60012161
:100C900080F82110426B002180F820100AB19047A3
:100CA0000021084680BD0000B0B5044600F024F9DC
:100CB000054640F20400C2F200000078611C18BF33
:100CC000044400BF00F018F9401BA042FAD3B0BDA5
:100CD0002DE9F04F82B00E68002E00F0038141F242
:100CE0000042C4F20102042340F2004E904208BFC9
:100CF00003234FF6FF7CC4F2010E0093002401236E
:100D0000C1F2100C4FF0000A4FF0000949E000BF9B
:100D1000012704F00C030F229A402BEA020207FA83
:100D200003F34FEA9A051A4346F82520D1F804B098
:100D300040F20C455FEACB22DEF8082054BF22EADD
:100D4000080242EA0802C4F20105CEF808202A6827
:100D50005FEA8B2354BF22EA080242EA08022A60B3
:100D60005FEA8B33DEF8042054BF22EA080242EA2D
:100D700008025FEACB33CEF80420DEF800204FF003
:100D8000010354BF22EA080242EA0802CEF800201A
:100D90000E680AF1010A36FA0AF204F1040400F0BE
:100DA000A18003FA0AF816EA080FF1D04E686645EA
:100DB00012DC122E56D8DFE806F0350B45495555A2
:100DC00055555555555555555555554D510000BF1F
:100DD000D1F80C9046E000BF4FF6FF72C1F221023D
:100DE00096420FDC0022C1F2110296421AD0002274
:100DF000C1F21202964215D00022C1F2210296429F
:100E000010D02FE00022C1F2220296420AD0002226
:100E1000C1F23102964205D00022C1F2320296425E
:100E200020D100BF8A684AB1012A14BFC0F81480DB
:100E3000C0F810804FF0080914E000BF4FF004091B
:100E400010E000BFCA6802F108090BE04FF000098A
:100E500008E000BFCA6802F1040903E0CA6802F1B1
:100E60000C0900BF22460646BAF1080F24BF203AFB
:100E7000043637680F25954027EA050509FA02F27E
:100E80002A433260CA79D2067FF582AF41F2180355
:100E9000C4F202031A68AEF57E7642F001021A60CF
:100EA0001A6802F001020192019A2AF0030256F830
:100EB00002B040F60002C4F20102904210D040F6A7
:100EC0000042C4F2010290423FF422AF41F200021C
:100ED000C4F20102009F904208BF022719E700BF39
:100EE000002716E702B0BDE8F08F0000002A08BF17
:100EF000090401617047000040F23030C2F2000086
:100F00000068704740F2040040F23031C2F2000045
:100F1000C2F2000100780A681044086070470000BF
:100F200080B542F20000C4F20200016841F01001F5
:100F30000160032000F08EF80F2000F005F800F0AB
:100F400027F8002080BD000070B540F20406C2F210
:100F5000000640F20C013278C2F200014FF47A73BD
:100F60000968B3FBF2F20446B1FBF2F1084600F067
:100F700061FC0F2C4FF0010508D838B94FF0FF3055
:100F800021460022002500F039F87460284670BD23
:100F900082B041F21800C4F202000168022241F05E
:100FA00001010160016801F00101019101994168AD
:100FB00041F080514160406800F0805000900098FE
:100FC0000420C4F20100016862F31A61016002B0FA
:100FD00070470000002848BF7047C1B200F01F00F2
:100FE000012202FA00F04EF20012CEF2000242EAB2
:100FF000D10121F0030108607047000010B54EF6E2
:101000000C5CCEF2000CDCF80030C3F3022E8EF044
:101010000704042C28BF0424BEF103034FF0FF3E55
:101020000EFA04F438BF0023A14399400EFA03F3EB
:101030009A43114300F00F0200F160430901043AA2
:1010400003F564436244002848BF02F10C031970A1
:1010500010BD00004EF60C51CEF200010A684FF6AA
:10106000FF031A4060F30A2242F0806040F0FD70F6
:101070000860704780B5012818D0022836D01028A3
:1010800032D141F20401C4F202010A6851F8040CA1
:10109000C00129D5C2F383402DA3185CD2033DD4EF
:1010A00040F60012C0F23D02504343E041F204001A
:1010B000C4F20200C16940F202320A40B2F5817FF7
:1010C00004BF4FF4004080BD01F44071B1F5407F92
:1010D0001CD0B1F5007F07D1006A49F64041800776
:1010E00001EAE07080BD00BF002080BD00F0B4F9CF
:1010F00041F20401C4F2020109680222C1F3813104
:1011000002EB4101B0FBF1F080BD00BF50F8040CD0
:101110004FF22441800301EAE07080BD0A6810A309
:10112000C2F340429A5C41F20023C0F27A03B3FB5F
:10113000F2F250430968490248BF80BD4AF6AB212C
:101140004000CAF6AA21A0FB0101480880BD00BFEB
:1011500002030405060708090A0B0C0D0E0F1010F8
:10116000010200002DE9F04182B00446007841F20E
:101170001C06C007C4F202064AD0306810F080583E
:1011800008D1306840F080503060306800F0805006
:101190000190019847F20007C4F200073868C005C3
:1011A00012D4386840F480703860FFF7A5FE054619
:1011B0003868C00508D4FFF79FFE401B6428F7D9A4
:1011C000032002B0BDE8F081706810F4407012D0C6
:1011D000616801F4407188420DD0706840F240426D
:1011E000C4F24222012320F4407113600023C0079F
:1011F000136071602AD17068616820F44070084300
:10120000B8F1000F706003D1306820F0805030607A
:101210002068810707D556F8181CA26821F44041C0
:10122000114346F8181CC00604D4002002B0BDE8E3
:10123000F08100BF56F8180CE16820F480000843E4
:1012400046F8180C002002B0BDE8F081FFF754FE0C
:10125000054641F2883700BF70688007CBD4FFF79E
:101260004BFE401BB8424FF00300F5D9EBE70000FE
:101270002DE9F04381B0002800F0858042F200089B
:10128000C4F202080446D8F800000D4600F007003A
:1012900088420CD2D8F8000020F007002843C8F894
:1012A0000000D8F8000000F00700A8426BD12068C9
:1012B00041F204098107C4F2020917D5410705D597
:1012C000D9F8001041F4E061C9F80010010705D514
:1012D000D9F8001041F46051C9F80010D9F8001095
:1012E000A26821F0F0011143C9F80010C00741D1F4
:1012F000D8F8000000F00700A8420CD9D8F8000088
:1013000020F007002843C8F80000D8F8000000F0DB
:101310000700A84237D12068410707D5D9F8001047
:10132000E26821F4E0611143C9F80010000708D514
:10133000D9F80000216920F4605040EAC100C9F8E2
:101340000000D9F8002002F00C00082841F200202B
:10135000C0F27A0050D143F60E13C2F38341C0F6B7
:101360000003595CD2033BD440F60010C0F23D00AC
:10137000484341E0606802280AD001282AD159F880
:10138000041C890308D4012001B0BDE8F08300BF2C
:1013900059F8041C8901F6D5D9F8001021F0030191
:1013A0000843C9F80000FFF7A7FD064641F2883759
:1013B000D9F80000616800F00C00B0EB810F97D005
:1013C000FFF79AFD801BB842F2D9032001B0BDE8B7
:1013D000F08300BF59F8041C8907D4D5DCE700BFAF
:1013E000D9F8002043F60C13C2F34042C0F60003C4
:1013F0009A5C4843B0FBF2F0D9F8001043F6F402CF
:10140000C1F30311C0F60002515C40F20C0220FA55
:1014100001F140F20800C2F200000068C2F20002CE
:101420001160FFF791FD002001B0BDE8F0830000DE
:1014300040F20C0041F20401C2F20000C4F20201C9
:101440000068096843F60412C1F30221C0F60002E5
:10145000515CC8407047000040F20C0041F20401AA
:10146000C2F20000C4F202010068096843F60412E7
:10147000C1F3C221C0F60002515CC84070470000B1
:101480002DE9F04182B0002868D00446007841F28E
:101490000006C007C4F2020625D0706800F00C00F8
:1014A00004281BD0706800F00C00082802D1706876
:1014B000C00313D46068002800F06881B0F5A02F45
:1014C00000F07C81B0F5803F00F07C81306820F432
:1014D00080303060306820F4802076E1306880030E
:1014E00001D56068D0B32078800718D5706810F0F7
:1014F0000C0F07D0706800F00C0008286ED17068DF
:10150000C0036BD43068800702D52069012825D13B
:101510003068616920F0F80040EAC100306020784E
:1015200000071FD42078400732D4E56995B1706870
:1015300000F00C00082840F08F80012D0ED070685C
:10154000216A00F480328A4208D1616A00F4701086
:10155000884203D1002002B0BDE8F081012002B032
:10156000BDE8F081A069002862D00020C4F24220CA
:101570000121C0F88014FFF7BFFC0546706A8007A0
:1015800000F18C80FFF7B8FC401B0228F6D92AE155
:10159000F06910F0805808D1F06940F08050F06197
:1015A000F06900F080500090009847F20007C4F204
:1015B00000073868C00529D4386840F48070386066
:1015C000FFF79AFC054600BF3868C0051ED4FFF738
:1015D00093FC401B6428F7D905E100BF206900286F
:1015E00040F20000C4F2422000F08280012101603C
:1015F000FFF782FC054600BF306880073FF588AFE3
:10160000FFF77AFC401B0228F6D9ECE0E0680028DE
:1016100000F08080052800F09780012800F0988075
:10162000306A20F001003062306A20F0040092E05D
:101630000020C4F242200021C0F88014FFF75CFCB7
:10164000054600BF706A80077FF56CAFFFF754FC5A
:10165000401B0228F6D9C6E00027C4F2422700202A
:101660003866FFF749FC022D05460BD13068800132
:1016700040F1BE80FFF740FC401B02284FF0030002
:10168000F4D968E7306880017FF564AFFFF734FC78
:10169000401B02284FF00300F4D95CE740F20C0035
:1016A000C2F20000006844F6D351C1F26201A0FB0F
:1016B0000101480A019000BF00BF0198411E0028A7
:1016C00001913FF42FAF00BF0198411E0028019106
:1016D0003FF428AF00BF0198411E002801913FF45C
:1016E00021AF00BF0198411E00280191E4D119E704
:1016F00000210160FFF700FC054600BF306880074D
:101700007FF50DAFFFF7F8FB401B02284FF00300F9
:10171000F4D920E7306A20F001003062306A20F00E
:1017200004003062FFF7E8FB054641F2883700BF4E
:10173000306A800720D5FFF7DFFB401BB8424FF02F
:101740000300F5D907E700BF306A40F004003062BB
:10175000306A40F001003062FFF7CEFB054641F2EF
:10176000883700BF306A800706D4FFF7C5FB401BEF
:10177000B842F7D937E000BFB8F1000F7FF4D5AE1B
:10178000F06920F08050F061CFE600BF306820F4AF
:1017900080303060306820F480203060FFF7ACFB90
:1017A000054600BF306880037FF59DAEFFF7A4FBC0
:1017B000401B64284FF00300F4D9CCE6306840F4B5
:1017C00080203060306840F480303060FFF794FB58
:1017D000054600BF306880033FF585AEFFF78CFB00
:1017E000401B6428F6D9032002B0BDE8F08100BF99
:1017F000206AB0F5803F05D17168A26821F40031FC
:10180000114371607168626A21F4741111430843D5
:10181000706001203866FFF76FFB04463068800176
:101820003FF598AEFFF768FB001B02284FF003005E
:10183000F4D990E6411E0020B0EB116F1CBF0120CF
:1018400070474EF21002CEF2000251604EF6235164
:10185000CEF20001F0230B700721906011607047F9
:101860007047000070470000B0B590F83C20012A96
:1018700004BF0220B0BD01F108053CCDD1E900CE86
:1018800023F47C5322F470521A432EF4F0431A438B
:101890002CF4E0431A4324F4C0431A432A43C96991
:1018A00022F48042036811435964002180F83C10FF
:1018B0000846B0BD10B590F83C20012A4FF0020256
:1018C00033D080F83D200268D2F804E0D2F808C096
:1018D0000C682EF07003234340F2FF74C4F200043E
:1018E000A24253600ADCB2F1804F13D040F20043B1
:1018F000C4F200039A420DD011E000BF42F600434B
:10190000C4F201039A4205D040F60003C4F200037A
:101910009A4204D149682CF0800319439160012157
:10192000002280F83D1080F83C20104610BD0000D9
:10193000002804BF0120704710B5044690F83D0010
:1019400028B9002084F83C00204600F067F8022007
:1019500084F83D00206840F2FF730268C4F200037F
:1019600042F6004C9842C4F2010C15DCB0F1804FF5
:101970001AD040F20041C4F20001884214D09842CB
:1019800018DCB0F1804F1DD040F20041C4F20001DC
:10199000884217D01AE000BF604505D040F600012C
:1019A000C4F200018842EAD1A16822F070020A4321
:1019B0009842E6DD604505D040F60001C4F2000122
:1019C000884203D1216922F440720A43A36922F0BC
:1019D0008001D4F804E0E268194360450160C26206
:1019E000C0F828E002D16169CCF8301001214161D2
:1019F000002084F8461084F83E1084F83F1084F8E4
:101A0000401084F8411084F8421084F8431084F8A0
:101A1000441084F8451084F83D1010BD80B582B0A4
:101A2000006840F20041C4F20001884214D042F63E
:101A30000041C4F2010188420CD141F21800C4F205
:101A40000200016841F400610160006800F4006078
:101A50000190019802B080BD41F21800C4F202006A
:101A60004168002241F0020141604068012100F01C
:101A70000200009000981D20FFF7C0FA1D2002B060
:101A8000BDE88040FFF7A6BA90F83D1001291CBFC1
:101A900001207047022180F83D10006840F2FF727B
:101AA000C168C4F20002904241F00101C16009DC4A
:101AB000B0F1804F12D040F20041C4F200018842E0
:101AC0000CD012E042F60041C4F20101884205D078
:101AD00040F60001C4F20001884206D1816801F09D
:101AE0000701062904BF00207047016841F0010189
:101AF000016000207047000080B590F83C20012A6A
:101B00004FF0020200F0C28080F83D20D0F800C003
:101B10004FF67772DCF8083023EA0202CCF808208E
:101B20000B684F2B28DC1F2B44DD202B45D0302B9E
:101B300043D0402B40F0AC80D1F804E0C968DCF819
:101B40002030DCF8202022F00102CCF82020DCF844
:101B5000182022F0F00242EA011123F00A0242EAC0
:101B60000E02CCF81810CCF82020DCF8081041F058
:101B7000470121F0300180E06F2B27DDB3F5005FD6
:101B800048D0B3F5805F7AD0702B40F08180D1E9E6
:101B900001E3C968DCF8082043EA0E0322F47F421F
:101BA00043EA01211143CCF80810DCF8081041F099
:101BB000770162E00BB1102B6AD1DCF8081021F03C
:101BC0007001194341F0070157E000BF502B35D099
:101BD000602B5DD1D1F804E0C968DCF82030DCF876
:101BE000202022F01002CCF82020DCF8182022F46B
:101BF000704242EA013123F0A00242EA0E12CCF810
:101C00001810CCF82020DCF8081041F0670121F012
:101C1000100132E0D1E901E3C968DCF8082043EAA9
:101C20000E0322F47F4243EA01211143CCF808104D
:101C3000DCF8081041F480411FE000BFD1F804E057
:101C4000C968DCF82030DCF8202022F00102CCF852
:101C50002020DCF8182022F0F00242EA011123F0E3
:101C60000A0242EA0E02CCF81810CCF82020DCF868
:101C7000081041F0570121F02001CCF80810002293
:101C8000012180F83D10002180F83C10104680BDF5
:101C90000122F5E7002804BF012070472DE9F04F2D
:101CA00081B0044690F83D000D4628B9002084F824
:101CB0003C00204600F094F8022084F83D002068A3
:101CC00044F20702816840F2FF7391438160026829
:101CD000C4F2000342F6004C9842C4F2010C15DC39
:101CE000B0F1804F1AD040F20041C4F200018842A6
:101CF00014D0984218DCB0F1804F1DD040F2004162
:101D0000C4F20001884217D01AE000BF604505D038
:101D100040F60001C4F200018842EAD1A16822F035
:101D200070020A439842E6DD604505D040F60001A6
:101D3000C4F20001884203D1216922F440720A43AF
:101D4000A36922F08001D4F804E0E26819436045F9
:101D50000160C262C0F828E002D16169CCF830109D
:101D60004FF00109C0F814908268D0F818E0D0F85C
:101D700020C0D5E90038D5E9027B43EA020AAB6905
:101D80004FF6FF712EEA010E47EA03234FF6FC4798
:101D9000BB43D5E907724BEA0E012E69194341EAAC
:101DA000072141EA061141EA02312CF022026B6957
:101DB00042EA080242EA0312C0F808A08161026206
:101DC00084F8469084F83E9084F83F9084F84290DE
:101DD00084F8439084F83D90002001B0BDE8F08F76
:101DE00080B586B0006840F60001C4F20001884268
:101DF0004FF00001CDE90411CDE902111ED0B0F180
:101E0000804F3FD141F21800C4F20200416841F016
:101E100001014160416801F00101019101990168EE
:101E200041F0040101600068032100F0040001900A
:101E3000019840F60000C4F201001CE041F21800D5
:101E4000C4F20200416841F004014160416801F0C0
:101E5000040101910199016841F0080101600068E5
:101E6000C02100F008000190019840F60000C4F283
:101E7000010000F5806002910021CDE9031102A963
:101E8000FEF726FF06B080BD80B590F83E2090F8A2
:101E90003F3090F842E090F843C004290AD0B9B925
:101EA000012A4FF0010208BFBEF1010F34D01046E5
:101EB00080BD00BF012B4FF0010208BFBCF1010F34
:101EC000F5D1022180F83F1080F8431000681EE031
:101ED000012A4FF0010208BF012BE8D1BEF1010F2A
:101EE000E5D1BCF1010FE2D1022280F83E2080F85A
:101EF0003F2080F8422080F8432091B10068016AB9
:101F000021F001010162016A41F001010162102129
:101F10006FF0100209E000BF022180F83E1080F847
:101F20004210006801216FF00102036A1A40026248
:101F3000026A114301620168002241F0010101605F
:101F4000104680BD7047000010B50168044608695E
:101F5000800744BFC8685FEA807039D408694007C9
:101F600044BFC8685FEA40703ED40869000744BFB8
:101F7000C8685FEA007045D40869C00644BFC868F5
:101F80005FEAC0604AD40869C0071CBFC8685FEA3E
:101F9000C07051D10869000644BFC8685FEA00609C
:101FA00052D40869400644BFC8685FEA406053D411
:101FB0000869800646BFC8685FEA806010BD6FF0A0
:101FC000200220460A61BDE81040FFF74BBC00BF6D
:101FD0006FF002000861012020778869800743D0F4
:101FE0002046FFF7AFFF45E06FF0040008610220D4
:101FF0002077886910F4407F40D02046FFF7A2FF89
:1020000042E000BF6FF00800086104202077C86933
:1020100080073DD02046FFF795FF3FE06FF01000AE
:10202000086108202077C86910F4407F3AD0204624
:10203000FFF788FF3CE000BF6FF001000861204619
:1020400000F054FA2168A5E76FF08000086120468F
:10205000FFF706FC2168A4E76FF040000861204606
:1020600000F046FA2168A3E7204600F04DF820462C
:1020700000F0CAF92168002020776FE7204600F0C1
:1020800043F8204600F0C0F92168002020776CE773
:10209000204600F039F8204600F0B6F9216800200B
:1020A000207769E7204600F02FF8204600F0ACF9D1
:1020B00021680020207766E780B586B0014640F6AB
:1020C0000000C4F20100096800F510530022994293
:1020D000049201D006B080BD41F21801C4F20201A1
:1020E0000A6842F004020A60096801F004010191E3
:1020F00001994FF41061029102210391059102A907
:10210000FEF7E6FD06B080BD704700002DE9F04304
:1021100090F83C30012B04BF0220BDE8F0834FEA69
:10212000B202032A3CD8DFE802F0034381BD00BFBE
:10213000036842F600461D6A1A6AC4F2010622F0DC
:1021400001021A621A465C6852F818CFB3428E68D0
:10215000D1F800E025F0020545EA06050CD1CE686D
:10216000D1E9057824F4407425F00C0526F0040626
:102170003C43354344EA08042CF0730747EA0E0752
:102180005C609F614F6809695F631D629F6947F0EA
:1021900008079F619F6927F004079F61B2E000BFB5
:1021A0000121002280F83C200846BDE8F08300BFF2
:1021B000036842F600461D6A1A6AC4F2010622F05C
:1021C00010021A621A46D3F804C052F8184FB342EC
:1021D0008E68D1F800E025F0200545EA061510D1FB
:1021E000CE68D1E9058725F0C0096FF0400505EA02
:1021F00006152CF4406647EA080745EA090546EA51
:10220000870C24F4E64444EA0E27C3F804C09F6117
:102210004F6809699F631D629F6947F400679F616A
:102220009F6927F480679F616BE000BF036842F6F7
:1022300000461D6A1A6AC4F2010622F480721A620C
:102240001A46D3F804C052F81CEFB3428E680C68EB
:1022500025F4007545EA062511D1CE68D1E9058738
:1022600025F44069360240F2FF4526EA05052CF4C4
:10227000405647EA080745EA090546EA071C2EF0DA
:1022800073072743C3F804C0DF614F680969DF6340
:102290001D62DF6947F00807DF61DF6927F0040787
:1022A000DF612FE0036842F60047D3F820C01A6AC6
:1022B000C4F2010722F480521A621A465C6852F88E
:1022C0001C5FD1F800E08E68BB4204D14F6924F452
:1022D000804444EA87142CF4005747EA063725F473
:1022E000E64646EA0E265C60DE614E6809691E64B9
:1022F0001F62DF6947F40067DF61DF6927F48067E9
:10230000DF6109021368194311600021002280F87F
:102310003C200846BDE8F083002804BF0120704738
:1023200010B5044690F83D0028B9002084F83C0020
:10233000204600F067F8022084F83D00206840F253
:10234000FF730268C4F2000342F6004C9842C4F2E4
:10235000010C15DCB0F1804F1AD040F20041C4F2FC
:102360000001884214D0984218DCB0F1804F1DD093
:1023700040F20041C4F20001884217D01AE000BFC9
:10238000604505D040F60001C4F200018842EAD160
:10239000A16822F070020A439842E6DD604505D04C
:1023A00040F60001C4F20001884203D1216922F401
:1023B00040720A43A36922F08001D4F804E0E26885
:1023C000194360450160C262C0F828E002D161692A
:1023D000CCF8301001214161002084F8461084F8C7
:1023E0003E1084F83F1084F8401084F8411084F8BF
:1023F000421084F8431084F8441084F8451084F89F
:102400003D1010BD704700007047000041B1082921
:1024100010D0042914BF00F1410200F13F020BE08B
:1024200090F83E20012A1CBF01207047022280F84C
:102430003E2013E000F140021278012A1CBF012067
:1024400070470222082907D0042914BF80F84120D0
:1024500080F83F2002E000BF80F84020006801F0D3
:102460001F010122036A8A4023EA02010162036A12
:1024700042F64441C4F201011A43A1F144039842D7
:1024800002620FD040F2FF71C4F20001884213DCF7
:10249000B0F1804F1CD040F20041C4F200018842EC
:1024A00016D01CE00A6842F400420A6040F2FF7154
:1024B000C4F200018842EBDD42F60041C4F20101A2
:1024C000884205D040F60001C4F20001884206D1DE
:1024D000816801F00701062904BF002070470168E8
:1024E00041F00101016000207047000070470000CA
:1024F000704700007047000070470000B0B582B020
:10250000044600680168C368426901F02F05202D68
:1025100003F0200506D12DB1204602B0BDE8B04041
:1025200000F0B4BB5FEA017C1EBF02F0010E03F4B1
:10253000907212EB0E0253D1226B012A05D111F0D9
:10254000100218BF13F0100236D10A0622D513F07C
:1025500080021FD094F8411021293FD1A168B1F524
:10256000805F03D12169002900F07082216A4A1C32
:10257000226209784160E18C01390A04E1842DD19D
:10258000C16821F08001C160C16841F04001C160B3
:1025900002B0B0BD490621D513F040011ED0C1687C
:1025A00021F04001C1602021204684F8411002B092
:1025B000BDE8B04000F04EBB0021019101680191DF
:1025C0004168019101994069400613D4A08DE18DC5
:1025D000E28D002A18BF884240F0BA8102B0B0BD37
:1025E000CA0718BF13F4807240F0B6804A0700F1A2
:1025F000B980BEE0E06B016849688AB2002AEDD07C
:10260000A38D9A42EAD2E1858069202800F09C805F
:10261000206850E8030F216820F4807041E803022D
:10262000DAB1206850E8030F216820F4807041E897
:10263000030292B1206850E8030F216820F48070F3
:1026400041E803024AB1206850E8030F216820F4F2
:10265000807041E80302002ADAD1206850E8050FB3
:10266000216820F0010041E80502DAB1206850E855
:10267000050F216820F0010041E8050292B12068B1
:1026800050E8050F216820F0010041E805024AB139
:10269000206850E8050F216820F0010041E805029C
:1026A000002ADAD1206850E8050F216820F04000A8
:1026B00041E80502DAB1206850E8050F216820F0F2
:1026C000400041E8050292B1206850E8050F2168FA
:1026D00020F0400041E805024AB1206850E8050FAB
:1026E000216820F0400041E80502002ADAD12020CC
:1026F00084F8420000202063206850E8030F21681E
:1027000020F0100041E80302DAB1206850E8030F1E
:10271000216820F0100041E8030292B1206850E8DF
:10272000030F216820F0100041E803024AB120683D
:1027300050E8030F216820F0100041E80302002A4E
:10274000DAD1E06BFEF732FA02206063A08DE18DF2
:10275000401A81B2204674E1626C42F00102626468
:102760004A0706D5BEF1000F03D0626C42F00202A8
:1027700062648A0706D5BEF1000F03D0626C42F096
:1027800004026264BCF1000F09D545EA0E02B2FAF8
:1027900082F2520903D1626C42F008026264626CF8
:1027A000002A3FF41BAF11F0200118BF002D03D009
:1027B000204600F06BFA20684069616C00F0400030
:1027C00001F00801401800F0B58000BF206850E813
:1027D000030F216820F4907041E80302BAB3206827
:1027E00050E8030F216820F4907041E8030272B3AF
:1027F000206850E8030F216820F4907041E803023C
:102800002AB3206850E8030F216820F4907041E853
:102810000302002ADAD11AE0206850E8050F216887
:1028200020F0010041E80502DAB1206850E8050F08
:10283000216820F0010041E8050292B1206850E8CB
:10284000050F216820F0010041E805024AB1206827
:1028500050E8050F216820F0010041E80502002A38
:10286000DAD1206B012824D1206850E8030F2168B9
:1028700020F0100041E80302DAB1206850E8030FAD
:10288000216820F0100041E8030292B1206850E86E
:10289000030F216820F0100041E803024AB12068CC
:1028A00050E8030F216820F0100041E80302002ADD
:1028B000DAD1202084F8420000202063206840699B
:1028C00040063FD5206850E8050F216820F0400001
:1028D00041E80502DAB1206850E8050F216820F0D0
:1028E000400041E8050292B1206850E8050F2168D8
:1028F00020F0400041E805024AB1206850E8050F89
:10290000216820F0400041E80502002ADAD1E06B9E
:10291000C0B142F68141C0F600014163FEF76AF999
:1029200000283FF45BAEE06B416B02B0BDE8B04005
:10293000084700BF2046FFF7DFFD0020606402B0BB
:10294000B0BD00BF204602B0BDE8B040FFF7D4BD27
:10295000401A216851E8031F226821F4907142E86F
:102960000313DBB1216851E8031F226821F4907141
:1029700042E8031393B1216851E8031F226821F450
:10298000907142E803134BB1216851E8031F22689C
:1029900021F4907142E80313002BDAD1216851E849
:1029A000051F226821F0010142E80513DBB121680F
:1029B00051E8051F226821F0010142E8051393B197
:1029C000216851E8051F226821F0010142E8051342
:1029D0004BB1216851E8051F226821F0010142E84E
:1029E0000513002BDAD1202184F842100021216345
:1029F000216851E8031F226821F0100142E8031307
:102A0000DBB1216851E8031F226821F0100142E880
:102A1000031393B1216851E8031F226821F01001CC
:102A200042E803134BB1216851E8031F226821F0EB
:102A3000100142E80313002BDAD1022281B22046B2
:102A4000626302B0BDE8B040FFF754BD216A31F8BF
:102A5000022B6FF35F22426021628CE5002804BFE5
:102A60000120704710B5044690F8410028B90020B5
:102A700084F84000204600F063F8242084F84100E8
:102A80002068D4E90212C36823F40053C3600369C9
:102A900023F440531A430261D4E904231143C2686A
:102AA000194341F20C639A431143C1604169A26921
:102AB00021F44071114343F60002C4F20102904236
:102AC000416103D0FEF7B4FC02E000BFFEF7C4FC96
:102AD0006268192148439100B0FBF1F048F21F51A0
:102AE000C5F2EB11A0FB01235A094FF69C73C0F607
:102AF000FF7302FB0300322303EB0010A0FB010174
:102B0000F02303EA5113206803EB0212C1F34311CF
:102B100011448160016921F490410161416921F012
:102B20002A014161C16841F40051C16000202021A7
:102B3000606484F8411084F84210606310BD0000A6
:102B400070B586B040F60004C4F20104006804F5D4
:102B5000405100268842049602D006B070BD00BFE6
:102B600041F21800C4F20200016802AD41F4804154
:102B70000160016801F4804101910199016841F00F
:102B8000040101600068294600F0040001900198EA
:102B90004FF400700290022003900320059020461D
:102BA000FEF796F84FF48060CDE9020620462946EC
:102BB0000496FEF78DF8252001210022FEF71EFA6B
:102BC0002520FEF707FA06B070BD000090F84230ED
:102BD000202B1CBF0220704700294FF0010318BFB3
:102BE000002A01D118467047002303638162222125
:102BF0008285C285436480F842100169006819B17A
:102C0000C16841F48071C1604169002341F0010154
:102C10004161C16841F02001C16018467047000061
:102C200040F21001C2F2000108784A7800EB8000FF
:102C300002EB4000A0F5047340F2642C40F21C202B
:102C4000C2F2000CC2F200000222CCF80030FFF702
:102C5000BDBF000070470000FEE70000FEE7000077
:102C6000FEE700007047000070470000FEF74AB919
:102C70007047000040F28C10C2F20000FFF764B908
:102C8000406A0021C185C184FFF736BC81B090F84D
:102C90004210222921D183680246B3F5805F09D111
:102CA00052F8281F52F8183C002B63D003685B6869
:102CB0000AE000BF52F8281F13B90369002BF5D0B2
:102CC00003685B6803F07F030B70116801311160CA
:102CD000C18D01390A04C18502D001B0704700BF1F
:102CE0000168CA6822F02002CA60CA6822F48072B1
:102CF000CA604A6922F001024A61202180F842102C
:102D000000214163026B012A3CD10163016851E853
:102D1000031F026821F0100142E80313DBB10168D0
:102D200051E8031F026821F0100142E8031393B138
:102D3000016851E8031F026821F0100142E8031303
:102D40004BB1016851E8031F026821F0100142E80D
:102D50000313002BDAD101680A68D20606D50022D7
:102D600000920A680092496800910099818D01B033
:102D7000FFF7C0BB026852686FF35F2221F8022B95
:102D80008162A5E701B0FFF74BBF000040F21C20B5
:102D9000C2F20000FFF7B2BBFEE70000F0B581B061
:102DA00000F0F4FA40F26824C2F200042046C82180
:102DB000FDF7D1F940F27C01201DC2F20001802212
:102DC000FDF7B0F92A2000F08FFD13A000F00CFCF5
:102DD000002522A611A700BF605D00091ABF80F080
:102DE000080057F82000302000F07EFD605D00F004
:102DF0000F0080F0080056F8200000F075FD013546
:102E0000842DE9D125A000F0EFFB232001B0BDE81F
:102E1000F04000F069BD00BF4C44000038000000E5
:102E200039000000410000004200000043000000A3
:102E3000440000004500000046000000460000007D
:102E400031000000320000003300000034000000B8
:102E50003500000036000000370000003800000098
:102E60003900000041000000420000004300000063
:102E70004400000045000000460000003000000053
:102E80003100000032000000330000003400000078
:102E90003500000036000000370000003030000030
:102EA00043F60001C4F201010A68520609D40A6817
:102EB00052065CBF0A685FEA426202D40A685206A0
:102EC000F2D5C2B24A60704798B0FEF729F80024E4
:102ED0000120CDE90544CDE90344009004904FF46E
:102EE000E0104FF480310225099068461794CDE92F
:102EF0001544CDE90114CDE90751FEF7C1FA28B117
:102F0000EFF3108072B600BFFEE700BF0F20CDE9DF
:102F10000A054FF48060CDE90D040AA802210C9443
:102F2000FEF7A6F920B1EFF3108072B6FEE700BFFE
:102F30004FF400400226169014A81496FEF712F9DA
:102F400020B1EFF3108072B6FEE700BF41F2180027
:102F5000C4F20200016840F6004841F0100101602F
:102F60000168C4F2010801F01001009100990168A4
:102F7000A8F5806541F0200101600168002201F0A0
:102F80002001009100990168602441F00401016072
:102F90000168002701F0040100910099016841F0E7
:102FA000080101600068602100F0080000900098AE
:102FB0002846FDF79BFF40464FF2020100224FF2E8
:102FC0000209FDF793FF03966E46009401242846FC
:102FD0003146CDE90147FDF77BFE40463146CDE95C
:102FE0000094CDE90274FDF773FE40F21006C2F2C0
:102FF000000608F5C051304640F80C1F4FF4602120
:1030000007730775C161C0E901770461FDF7EEFA46
:1030100020B1EFF3108072B6FEE700BF042006F186
:103020000C058DE8910069462846FDF715FA28B190
:10303000EFF3108072B600BFFEE700BF2846FDF731
:1030400083F940F2FC00002108F50052C2F20000B2
:1030500041F61F431791CDE91511CDE91211CDE9C4
:103060000611CDE90411CDE90211CDE90011C0E945
:103070000021C0E90213C0E904118161FEF758FC88
:1030800020B1EFF3108072B6FEE700BF4FF480501E
:10309000149040F2FC00C2F2000014A9FEF72CFDCF
:1030A00020B1EFF3108072B6FEE700BF40F2FC00E3
:1030B000C2F20000FFF730F920B1EFF3108072B6D2
:1030C000FEE700BF40F2FC00C2F2000012A9FEF7CA
:1030D000F1FB28B1EFF3108072B600BFFEE700BF2E
:1030E00060200A900020CDE90B00CDE90D00CDE96C
:1030F0000F0040F2FC00C2F200000AA90022FFF714
:1031000005F828B1EFF3108072B600BFFEE700BFEC
:1031100040F2FC00C2F200000AA90C22FEF7F6FF02
:1031200020B1EFF3108072B6FEE700BF4FF40050FD
:10313000059040F2FC000025C2F2000069460495AB
:10314000CDE90255CDE900550795FEF78DFB18B185
:10315000EFF3108072B6FEE740F2FC00C2F200000E
:10316000FEF7AAFF40F24410C2F200004FF0804187
:10317000C0E9001503214FF6FF72CDE900150121CA
:10318000C0E90252CDE902150A22CDE906156946C9
:10319000CDE90A5505618561CDE904250892FEF760
:1031A00079FD18B1EFF3108072B6FEE740F24410DB
:1031B000C2F200000AA9FEF77DFB18B1EFF3108000
:1031C00072B6FEE740F28C100021A8F58432C2F2FC
:1031D000000041F61F4331270391CDE90111CDE9EC
:1031E0000A11C0E90023C0E9021701618161FEF7FD
:1031F0009FFB18B1EFF3108072B6FEE74FF48050DA
:10320000009040F28C10C2F200006946FEF774FC98
:1032100020B1EFF3108072B6FEE700BF40F28C10D1
:10322000C2F200000AA9FEF745FB18B1EFF31080C7
:1032300072B6FEE740F21C2008F53051C2F20000E1
:1032400000240C234FF4E13280E81600C0E9034467
:10325000C0E90534C461FFF701FC18B1EFF3108039
:1032600072B6FEE708F5E051304640F83C1F0473A3
:1032700004754FF46021C0E901440124C161046177
:10328000FDF7B4F920B1EFF3108072B6FEE700BF8E
:10329000082006F13C05CDE90004002469462846D3
:1032A0000294FDF7D9F818B1EFF3108072B6FEE77B
:1032B0002846FDF749F840F2D410A8F58231C2F251
:1032C0000000C0E9001403214FF6FF72CDE900149D
:1032D0000121C0E90242CDE902140A22CDE9061417
:1032E0006946CDE90A4404618461CDE90424089269
:1032F000FEF7D0FC20B1EFF3108072B6FEE700BFFE
:1033000040F2D410C2F200000AA9FEF7D3FA18B1B5
:10331000EFF3108072B6FEE740F24410C2F20000F4
:103320003C21FEF7B1FD40F2D410C2F200003C2176
:10333000FEF7AAFD40F2FC05C2F200052846002176
:10334000FFF764F828460C21FFF760F840F28C1074
:10335000C2F20000FEF798FB404602210122FDF771
:10336000C5FD4FF4FA70FDF79FFC40F21C2040F2BF
:103370001001C2F20000C2F200010222FFF726FC97
:10338000FFF70CFD0520FDF78FFCF9E72DE9F04F65
:1033900081B040F6000AC4F2010A44F640395046B2
:1033A00020210022C0F24C09FDF7A0FD504640212B
:1033B0000022FDF79BFD40F20C0BC2F2000BDBF884
:1033C00000004CF66B284845C6F65F3818D3A0FBC2
:1033D0000801480D00EB800010F003010AD001291C
:1033E00000BF01D1013805E000BF02291ABF033830
:1033F00000BF023800BF00BF00BF043800BFF9D1D2
:10340000504640210122FDF771FDDBF800004845E0
:1034100018D3A0FB0801480D00EB800010F0030159
:103420000AD0012900BF01D1013805E000BF0229FF
:103430001ABF033800BF023800BF00BF00BF043806
:1034400000BFF9D1504620210022FDF74FFDDBF8E7
:103450000000484518D3A0FB0801480D00EB800090
:1034600010F003010AD0012900BF01D1013805E0A5
:1034700000BF02291ABF033800BF023800BF00BFD7
:1034800000BF043800BFF9D1504620210122FDF7CA
:103490002DFDDBF80000484518D3A0FB0801480DBE
:1034A00000EB800010F003010AD0012900BF01D118
:1034B000013805E000BF02291ABF033800BF0238F7
:1034C00000BF00BF00BF043800BFF9D15046402103
:1034D0000022FDF70BFDDBF80000484518D3A0FBE8
:1034E0000801480D00EB800010F003010AD001290B
:1034F00000BF01D1013805E000BF02291ABF03381F
:1035000000BF023800BF00BF00BF043800BFF9D1C0
:1035100040F21C0540F27C040026C2F20005C2F213
:10352000000402E00136802E5AD0504620210022AD
:10353000FDF7DCFCDBF80000484519D3A0FB0801CF
:10354000480D00EB800010F003010BD0012900BFF3
:1035500002D1013806E000BF00BF02291ABF0338BC
:1035600000BF023800BF00BF00BF043800BFF9D160
:103570002846FDF775FA28464FF0FF31FDF73CF974
:1035800010B1002704E000BF2846FDF72BF807091B
:103590002846FDF7CBFA504620210122A755FDF71A
:1035A000A5FCDBF800004845BCD3A0FB0801480D92
:1035B00000EB800010F003010AD0012900BF01D107
:1035C000013805E000BF02291ABF033800BF0238E6
:1035D00000BF00BF00BF043800BFF9D1A2E700BFA1
:1035E00001B0BDE8F08F00000FB4054B10B503A982
:1035F000044A029800F018F810BC5DF814FB0000B3
:10360000A12E00080000002002E008C8121F08C117
:10361000002AFAD170477047002001E001C1121F53
:10362000002AFBD1704700002DE9FF4F8DB09B466B
:103630000F460446002606E025280BD05A460F996F
:103640009047641C761C20780028F5D111B03046D4
:10365000BDE8F08F0025A8460122984900E0054307
:1036600014F8013F203B02FA03F00842F7D120781A
:103670002E2817D114F8010F45F004052A280ED082
:103680006FF02F022078A0F1300109290AD808EB49
:10369000880102EB410100EB0108641CF2E757F8D6
:1036A000048B641C20786C280DD004DC4C2812D0CC
:1036B0006A2811D104E074280DD07A280CD10AE0D0
:1036C00045F4001507E0617845F48015814202D188
:1036D000641C05F58015641C2278692A45D008DC35
:1036E000002AB3D0582A69D0632A10D0642A08D19E
:1036F0003BE0702A67D0732A13D0752A5CD0782AF1
:103700005CD010465A460F999047761CD3E017F8C4
:10371000040B8DF8000000208DF80100E94601201F
:1037200003E057F8049B4FF0FF3069074FF00005A6
:1037300001D40AE06D1C45450DDA8542FADB19F823
:1037400005100029F6D106E06D1C8542FCDB19F856
:1037500005100029F8D12E4404E019F8010B5A464F
:103760000F9990476D1EF8D2A5E00A200021CDE9FF
:103770000801C5F3025002280DD001CFC117031E66
:1037800071F100030DDA4FF0000CD0EB0C006CEB84
:1037900001012D2308E0FF1D27F00707F7E80201CC
:1037A000EDE72B0504D52B238DF8283001233BE0D2
:1037B000EB0739D02023F7E70A2000E01020002192
:1037C000CDE9080107E01020002145F00405CDE90E
:1037D00008014FF00808C5F3025002280FD001CFAE
:1037E00000214FF0000A2B071FD5702A0DD0DDE90C
:1037F00008C38CF0100C5CEA030C0CD015E0FF1D24
:1038000027F00707F7E80201EBE740228DF82820B0
:103810004FF0010A0BE050EA010306D030238DF887
:1038200028308DF8292002239A46582A04D024A251
:103830000DF120090B9209E026A2F9E7DDE9082342
:10384000FCF794FC0B9B9B5C09F8013D50EA0102DC
:10385000F4D1ADEB090020300890680701D44FF097
:1038600001080899884502DDA8EB010000E000206E
:103870008046002506E00AA85A46405D0F99904709
:103880006D1C761C5545F6DB04E030205A460F9936
:103890009047761CB8F10001A8F10108F5DC05E0BD
:1038A00019F8010B5A460F999047761C0899481E43
:1038B00008900029F4DC641CC5E60000092801001A
:1038C0003031323334353637383961626364656696
:1038D0000000000030313233343536373839414258
:1038E00043444546000000000149FFF7D9BA0000F3
:1038F000000000200000000000000000010203049E
:103900000607080900000000010203040102020387
:103910000405060708090A0B0C0D0E0F1010000015
:1039200040390008000000201000000008360008A0
:103930005039000810000020280700001836000841
:103940000000000001000000100000000024F4004E
:04000005080000ED02
:00000001FF
